:020000040000FA
:100000000C94BF0B0C94E70B0C94E70B0C94E70BD0
:100010000C94E70B0C94E70B0C94E70B0C94E70B98
:100020000C94E70B0C94E70B0C94E70B0C94E70B88
:100030000C94E70B0C94E70B0C94E70B0C94E70B78
:100040000C9482270C94E70B0C94F2270C94CC2789
:100050000C94E70B0C94E70B0C94E70B0C94E70B58
:100060000C9424280C94E70B00407A10F35A00A05B
:10007000724E18090010A5D4E80000E87648170071
:1000800000E40B54020000CA9A3B000000E1F505B1
:10009000000080969800000040420F000000A086FB
:1000A00001000000102700000000E803000000002D
:1000B0006400000000000A000000000001000000D1
:1000C00000002C76D888DC674F0823DFC1DFAE59EB
:1000D000E1B1B796E5E3E453C63AE651997696E87E
:1000E000E6C28426EB898C9B62ED407C6FFCEFBC02
:1000F0009C9F40F2BAA56FA5F490055A2AF75C932D
:100100006B6CF9676DC11BFCE0E40D47FEF520E662
:10011000B500D0ED902E0300943577050080841E45
:10012000080000204E0A000000C80C333333330FA0
:10013000986E12831141EF8D2114893BE65516CF3D
:10014000FEE6DB18D1844B381BF77C1D901DA4BB49
:10015000E424203284725E228100C9F124ECA1E5FE
:100160003D271C0004040505040406101000000EC1
:10017000000E00000F00000263400FEA69C2245025
:10018000FE910A34A6C8090241124F25C3145AF041
:1001900058A20F5E101E2D3C280042124F21C31A98
:1001A0005CF460120F9E921D2C3A1000430FEA2956
:1001B000C2248E9419148A04CA3F02441F1022C21A
:1001C0006550152132858A142A618823C4450F920F
:1001D0002046A4509922A5149A0245201022C265F7
:1001E00050550933458E903941682D61C2650DA186
:1001F0002073A4C89912A6149A02461F1022C26541
:1002000050958932478A9C2181C86C616A17913860
:1002100043E4481913A5149A02471F1022C26550DF
:10022000559132858A102341F06861441C99285405
:10023000A4501942A4149A0248110A2EC2438CFEFB
:100240008D8A24878A0D0C0400491350E1C2155C85
:10025000F460170F1E8478427AB850004A1350E1B8
:10026000C22A7C3491170F1E84703C5A7828004BA8
:10027000110A2EC2147058A12329D410A37F0300A1
:100280004C0EEE64C3E0828D2A7426C90A034D1415
:10029000C775C2164AD01822251E94305286D0281F
:1002A00061014E15C771C2104CD42032454C3C2818
:1002B0005184CC2051C1004F0DEE24C32696A439A1
:1002C000546A583850142E25C3215004B144258A4D
:1002D000945185CE245961005110C96DC2268C50AD
:1002E000993A2A5557C44400520FC96DC2218C5403
:1002F0003D2A5347C4840153142E25C32696A4399E
:10030000546A8A9428948C8440110054131022C299
:1003100046985EAA436996B478983E7820005513B3
:100320001022C2F08178988A266B129D4AC2F40C82
:1003300000561AD0A1C21C5E8C8B174285080D0F87
:100340006150214245BC70233E3000571A90A1C233
:100350002698EC687182C49111C64C0C3941E24474
:100360008F252C0C00581F1022C2C28891404102D8
:10037000854B24CC883822E4841813245C42410243
:100380000571020059240F22C21C5CC4B85446C631
:100390008C10346248B0B28389961C2224D0981104
:1003A0002248A52B2C3A08005A169021C31A5EF851
:1003B0006882A99874436A903841024385075B1CA0
:1003C000D0A1C260D458187126442D4A212689989C
:1003D000606184CB509040411C0100000004FFFF8D
:1003E00000000500040405050103061010000010BC
:1003F00000100000170000009740178F35CCA1C7F0
:10040000963412CAC81823250C29436894B04000BA
:10041000411B10265C0655B171A244841A3648C4AB
:10042000245BD404851337AC149A02422010265C56
:100430000655B1713284C8083262922D62B42C8D97
:10044000181243880C71C34AA129004322CF350CEE
:100450008BD4102D3942E0103142C6883124884CAB
:1004600008516244081521548450115E004421EF64
:100470002D2C21C38C1B51AA441923250C29436818
:10048000F05CAA35464A182A418C884011000000C9
:100490000004FFFF00000600040405050203061027
:1004A000100000100010000014000000A040149084
:1004B00069F8882244A7884D93170F3E18F1A405C8
:1004C00000411C104A7888222C5A960CA92168C435
:1004D000A053C4A6C98B071F8C78D2020042180F04
:1004E0004A98420B1E4BA9499307D1A55B12C2093A
:1004F00023654885014321104AF8882244A7884D86
:1005000093170F0C2D33266A98B03042241322998A
:1005100010C9844804004416AE5DD8044B4BCA058C
:100520001B55E80C9A1B324C90B06800451F104ACE
:10053000F8848B142848A040B2261109414204894E
:10054000209466094A2450A470710000000004FF42
:10055000FF0000120004040505040306101000004B
:10056000100010000026000001AA40260E2261148F
:100570002C5088402102854824440811498848426B
:100580004412223212229110898408142258220027
:10059000411DCEA161161944DC105145F8440812E2
:1005A000314286881114448C38418205024215F08C
:1005B00021E1134DD6244274AAD8B878101E9207B0
:1005C0003F204318D0A161238A6ED030A9040A12BB
:1005D0002848A020814208E24302440A8CA96120F5
:1005E00084FF230245148BA961083AB0D8A1240FD7
:1005F0001E0439546C60500046138CA96122864653
:10060000898A071F8C50A206192100471E8FA561F9
:100610000B174A98A05143CA9430D2C2C509234649
:10062000CA141A354A98B07001481C8FA161081786
:100630004CAA89CA14B1E2848B2626CA14193548FB
:1006400098A870C10049138EA1612059D018223595
:100650002BBA59A40CA1C9004A148EA161086910D3
:1006600099A2352D5AAC5184CC6049024B098CA912
:1006700061F87F90004C190C2AE11249902221F474
:100680008D14C2840C1A838CA45081A690004D1D39
:100690001022E13CB588236282040A122848A02077
:1006A0005185049928C42B1266C9024E1B1022E101
:1006B00032A88A8D9312288C3862B51113142590B4
:1006C000B861A5D014004F26102261132E7A8840FD
:1006D0002244108D402502491825429408511246A3
:1006E000950844A388901B2254B8400050170C2A48
:1006F00061132A7220219C8440A249084408490EB3
:10070000950800510F083261936AD0831F2022356B
:100710004C0200000004FFFF0000005EBCE2613FED
:10072000DD83C29C7E20A3FD1F419DC3217FFCA2CF
:10073000401E5F01E3BD3E6082DC237D9FC1421C01
:10074000FEA0E1BF5D0380DE3C62BEE0025CDF81B3
:10075000633D7C22C09E1D43A1FF4618FAA4277961
:100760009BC584DA3866E5BB5907DB856739BAE48F
:1007700006581947A5FB7826C49A653BD987045AC1
:10078000B8E6A7F91B45C6987A24F8A6441A99C773
:10079000257B3A6486D85B05E7B98CD2306EEDB321
:1007A000510F4E10F2AC2F7193CD114FADF3702E4F
:1007B000CC92D38D6F31B2EC0E50AFF1134DCE9081
:1007C000722C6D33D18F0C52B0EE326C8ED0530D33
:1007D000EFB1F0AE4C1291CF2D73CA947628ABF5E1
:1007E00017490856B4EA6937D58B5709EBB536680F
:1007F0008AD495CB2977F4AA4816E9B7550B88D641
:10080000346A2B7597C94A14F6A8742AC896154BF2
:10081000A9F7B6E80A54D7896B3500000000240018
:1008200027002A0000000000250028002B000000FF
:10083000000800020100000304070000000000009F
:100840000000000000002300260029000404040426
:10085000040404040202020202020303030303036A
:100860000102040810204080010204081020010247
:100870000408102008000303040501010508130003
:10088000001300130000000000009C300B38CF2242
:100890001DC4FAFFF920310F38CF221DC4FA7FA101
:1008A0004828E28300321338CF221DC4FA2F1409DE
:1008B000452CA14828E28300331738CF221DC4FA03
:1008C0008522A188251409452CA14828E2830034FB
:1008D0001B38CF221DC4BA502414B18422A188250C
:1008E0001409452CA14828E28300351F38CF221D6A
:1008F000C4128A842296502414B18422A18825141B
:1009000009452CA14828E28300361738CF221DC4A0
:10091000DA42B2905E28128A48A7982826563E08E6
:10092000370500CE0000000004FFFF0000050003B3
:100930000304040102050808000008000800000B79
:1009400000000044400B68C70E4F42131B5508417E
:100950000D88C5A2592A26DA81622301420D88C575
:10096000A259544AA68A8A8D04430D77C728458523
:100970009190282A3D04441088C5094646131B91CE
:1009800066194D82110000000004FFFF0000060000
:100990000303040402020508080000080008000020
:1009A0000B0000004A400B688E372C590E07C90116
:1009B000410D888A339C4A8625CBE12039420B774A
:1009C0008A235CA45D6C2200430F888A372C590E61
:1009D000B3594AB6481200440A568F25B2904829A6
:1009E00000450C668F110CC94834513000000000DE
:1009F00004FFFF00001200020304040302050808BC
:100A00000000080008000012000000DD40128714FA
:100A10000FC5501A4A492929334A46311C02410E52
:100A2000771C0FC7922BA2C2388C2100420C78147D
:100A30002F83B475C4C8E3104311781C4B8B620C30
:100A4000853114C9100DD190004407661D23F22989
:100A5000450B651D1343E361C610004609661D473B
:100A60001D8F8902470C671D1B4762654DA2180741
:100A7000480C671C1387AAC92AA53804490B671CB0
:100A8000234333E5A6A1004A0B671C1343B465D189
:100A900033244B07661DF347004C0E86152B43622B
:100AA000A4354A341453004D0E88145F9A3114C68D
:100AB00050187A83004E0C88144B5BD3E9A26C1259
:100AC000004F1188141FC392445A5115952A198A50
:100AD0002100500C86151F4322AB0DC96008510937
:100AE00084161F1E07290700000004FFFF00001CDA
:100AF00000030304040303050808000007000700BF
:100B0000000A00000145400A85255630A7CA2C047A
:100B1000410B583456587A88C8A300420B58346E9B
:100B20005C72888A4300430A8525566C520AE604A3
:100B3000440F8824164D241999C843894846024514
:100B40000F8824164D321195C5238A644602460F3C
:100B50008824166D22218DC525C9444602470F8879
:100B600024164D24118E49A689484602480A842637
:100B70008E48178A2C02490A483456F870084501F5
:100B80004A0A4834AEE4700887004B0A84264E684F
:100B90004211E9024C08363D868526024D09632F35
:100BA00056E41011054E0A632E4648728884004FA1
:100BB000073635968C62500C58344E30329AD8A88D
:100BC00032005109642E964449A600520A85254EEA
:100BD0006CD3642D0653094635968C221A06540BA5
:100BE00088249E58952A473D04550C8824C6218E9A
:100BF0002AA58AD500560E782C76E4208DC3A2074C
:100C0000491800570E682C9654168AD94231A90803
:100C100000580F88248E29180FC56CA17830640104
:100C20005910882476443691A489A59214D93802A3
:100C30005A0C68346E5C66B1C84271005B0D782C4A
:100C4000C63456A2C41343260000000004FFFF0070
:100C500000600003020304030404060B00FE08FE08
:100C600009FF0143028A03B5200500A203210641C2
:100C7000A3E31222079BBA23B104230B2DAEA732A4
:100C8000289541A900240F559E2B5B2A4AB6255171
:100C9000A254B608250E45A2675012A59BA4288928
:100CA0009400260D45A247AAD42A519248911227B2
:100CB0000519BB632808D39E2B29F5562909D39E15
:100CC000232BF552022A0A2DAEAB52599A22002B41
:100CD0000A2DA62B8C06298C002C08A29A63481496
:100CE000002D058BAE632E0612A363082F0C559AB8
:100CF000B316666116666108300D45A267C9A42562
:100D000099342D5900310945A22B1A7B1A04320A55
:100D100045A267C9C2ACE320330C45A267C9C248EB
:100D20000DB56401340C45A22F939252326861369E
:100D3000350C45A2E3180E69A8250B00360C45A218
:100D40006709C321C96CC902370A45A263106BC584
:100D50002600380C45A267C9B464C96CC902390CB5
:100D600045A267C96CC9105616003A0832A3630839
:100D700087003B09C29A63088744013C07BCA62F41
:100D80006A6C3D081DAE635007013E08BCA6236C8B
:100D90006A033F0B45A267C9C25A1D8A00400E452F
:100DA000A267C994214994214C8700410D45A22B8B
:100DB0004BA2A4A60D43A605420D45A26348326D81
:100DC0005032DBA000430A45A267C9C46EC9024481
:100DD0000A45A2634832DF0605450B45A2E3180E1B
:100DE00049581C04460A45A2E3180E49D808470C86
:100DF00045A267C9C4D2A6250B00480A45A223B361
:100E00000D43E616490A45A26390C29E06014A0AAE
:100E100045A2B3A3A6250B004B0D45A223939292A6
:100E2000A62551250B4C0845A223ECE3204D0C458B
:100E3000A2235B96444934B7004E0B45A2239B94F2
:100E400044DADC024F0A45A267C97C4B1600500CFD
:100E500045A26348326D50C24600510A4D9E67C993
:100E60007CA9AC01520C45A26348326D5032B700E8
:100E7000530B45A267C9D435D49205540945A263E2
:100E800090C23E01550945A223F35BB200560C45C2
:100E9000A223734B4A49164600570A45A223F392F0
:100EA00028C92D580B45A223B325B54A4D0B590A25
:100EB00045A223734B6A61095A0A45A26310B38E97
:100EC000E1205B08529F63E917015C0CD59A234C23
:100ED000C3344CC3340C5D08D29E43E997015E08CD
:100EE0001DB62B4B6A015F060E9AE300600692BEA8
:100EF000230A61092DA267D04C8A12620C45A223F5
:100F00002C0E49661B140063092DA267C9C474081E
:100F1000640A45A2B365D06CC910650A2DA267C9E1
:100F200086211D02660AC4A24B89A6AC1300670C79
:100F30003D9A67D06CC910260B00680A45A2232C85
:100F40000E49E6166908C3A227975A066A09539AFA
:100F50002B973A2D006B0B45A2236C4A4A53250B65
:100F60006C08C3A243EACB006D0C2DA263482A4A49
:100F7000A2244A016E092DA2233169B6006F092D02
:100F8000A267C96CC902700C3D9A634832DBA08429
:100F90002100710A3D9A67D06CC9101672092DA202
:100FA000233189450073092DA267500F0A00740987
:100FB000C4A2272B4D595175092DA22373529400B9
:100FC000760B2DA223D39252924500770C2DA223AB
:100FD00049944449942E00780A2DA2234B6A955ACD
:100FE00000790B3D9A23734B863059007A092DA264
:100FF00063D0DA06017B0ADB9A2B895AB2A82D7CD2
:1010000006519FE3217D0BDB9A238BDA92A8250200
:101010007E0615B2C7057F0500A20300000004FF8D
:10102000FF0000600003030505040606121B00FB19
:1010300012FB1200025D04E7073B20060020C802F5
:101040002109422A78E2071101220966ECCBC2127B
:10105000CA0223244A26C86E329BCC2633916C24C4
:101060009B4C0E07936826121D0E96B5C94C34137F
:10107000C946B2C90C002427EAA6C7520E9143C440
:10108000B643643619D62173C81C3287D0E990392B
:10109000440E31DA468798590E91438400251B4946
:1010A00026C86676BA9CC463B9782C1ECBC56391FA
:1010B0006842994822A2DB00261D6926C88E685A1C
:1010C000914DE4F2F1985894CC24139284743B51DE
:1010D000469343CC00270963E87B62128A002814F8
:1010E0004532D84A3619C9444B326DA3996C341B2A
:1010F000490029114432C842241A8946FA6545320A
:101100009185002A100869DB4E2C3A484C96434CD6
:101110001493012B0CE728B94EAA74B84945002C4A
:101120000762E87782122D0747A8B9E2012E07422D
:10113000287882002F13482AC85A752A5D95AE4A2E
:10114000A7D255E9AA180030124926C88E76A11CEC
:10115000A9FCD7A26434399200310B452EC84EE960
:1011600060D3FF0332164926C88E76A11CA945E23A
:10117000743C5D9E2E4FC7870301331469E6C7E2B6
:1011800081BC3A164FA965BA5E6407D23508341798
:101190004926C86E2C178FE5E265B9483452131DF5
:1011A0000E54B9260035154926C8E2C1AEFD748833
:1011B000CCAA72756AD13439920036174926C88E86
:1011C000762119E9EAA7436466A4B2164D93230970
:1011D0000037154A26C8E24354229C08E773F9BA3F
:1011E0007CBB7CBB1400381A4926C88E762119A90D
:1011F000D4A26434395D66462AB528194D8E240080
:1012000039184926C88E762119A9AC45D3E410BAFD
:10121000CBA945C9687224013A0842A978820E25F3
:101220003B09626978820EA5043C0D66EDC8523612
:101230005A120AB74A033D0BC8E8C8E2418E743817
:10124000083E0F66EDC8222A1D2ECA26A399300A31
:101250003F146926C88E769A1CA972F194BA2CD7CD
:101260001DA35C064033D1E636D70E3A8C2D363AB4
:10127000690E9ACC4CA6534D34A3A9D1D4686A34D4
:10128000359A1A4D8D36A1980E941985364799C313
:10129000EDE0031D721001411C4A26C8520E19F3DD
:1012A0005C344E8422A148281A1D42879050241491
:1012B000098D0342184926C8C27688C826C22AE387
:1012C0008172924D84558EB543C50643124926C896
:1012D000AA76A11CA974FDB5689A1C49004410495E
:1012E00026C8E27488C8ACFC3F1E28270045204A67
:1012F00026C8E2431C2287C82172881C2287DC6E24
:1013000072881C2287C82172881C72381846224AAB
:1013100026C8E2431C2287C82172881C2287DC6E03
:1013200072881C2287C82172881C2287C821004726
:10133000134926C8AA762119E9BAB9722D5A288705
:101340009801480D4926C842CA5F0F0F51FE2A492D
:1013500008422A78E20F014A0E4926C85EFF776AE2
:10136000D1343992004B1D4926C842D836118D44DC
:1013700023C9AC58A4528B45C94C34128D641361F7
:1013800071004C244A26C8420E9143E41039440EA1
:101390009143E41039440E9143E41039440E9143D3
:1013A000E41039E470304D194926C86258B39D2EB7
:1013B00087C8E16132A14C4812528814A2F22A4E29
:1013C000154926C862D868B39D4E141165429290A3
:1013D000DE1CBB0A4F114926C88E76A11CA9FCD77A
:1013E000A26972240150124926C8C27688C88C5559
:1013F0008E07CA49AEDF0151114926C88E76A11C5D
:10140000A9FCD7A269728819521A4926C8C27688DF
:10141000C88C558E07CA493492896413D94428115F
:10142000B60A53154926C8AA762119A9E53999BEE5
:101430009D5A344D8E2400540C4926B8E28128D799
:10144000FF6F00550E4926C842CAFFD7A269722411
:1014500001561B4A26C86238114E8422A168265ABA
:1014600013CD44429170226D25B36F0357224A2653
:10147000C862E838118A8422A14828922849942415
:101480004A87D02174081D4287D021B40B00581D13
:101490004A26C84638118A66A235917022B492B99C
:1014A0001A2742916CB426124A8603591A4A26C852
:1014B0006238118A64A3915024940CAB65F27C2E9F
:1014C0005F97AFCB015A164926B8E2813C168FC50B
:1014D00063F1EA782C1E8BC78703015B0B462EC88D
:1014E000E251FF8F87025C15492AC8423E579FCBC5
:1014F000C773F9782E9FCBC773F9005D0C452EC8D2
:10150000E230D3FFDBA1005E0966ECCC86720809ED
:101510005F084CA0C7E2C300600984B0CC422692A9
:1015200009611BCB25D88E6C1CCD8432A11C24BC38
:101530001D423491542415311D462501621569263A
:10154000C842AE17D221423952F95AB41C2A12129B
:10155000006311C925C88E762119A9745D8B16CA3E
:10156000910464136926C85E6F96436464A4F2B55F
:1015700068A11C62066514C925C88E769A1CA9D478
:10158000C3435C3E8CB01C490066136926C8926850
:10159000B38964728D87C82128D71F01671C69E64B
:1015A000C6CE72884C8E546A5132A19C6CF2F1E521
:1015B00050A4D6268790050068106926C842AE1749
:1015C000D221423252F9AF02690D642A784224874F
:1015D0008BF49F96046A1007EFD6561DABFEBFD260
:1015E0002A131305006B176926C842AEC7B6894C8B
:1015F000241AA949666EA7916845581C6C0C65268B
:101600007842A6FFDF66A4016D20D025384342232F
:101610001D0E118AC938A44AA952AA942AA54AA91A
:1016200052AA942AA54AA90A6E0FC925C842423A6D
:101630004448462AFF55006F11C925C88E761A19ED
:10164000A97C2D5A28471200701569E6C642423A15
:101650004448462A5F8BA603454292EB0E711469FB
:10166000E6C6CE72888C8C54BE1625A3C92166D7D7
:1016700003720EC72598427238444A54FD2B0073FA
:1016800013C825B88A6619D988E562B948B44C6C84
:101690002400740F66268846A8DBA122D41F87B4D5
:1016A00001750FC925C842CA7F2D4A469343CC0015
:1016B000761BCA25C86238114E8422A168265A13A7
:1016C000CD4442917022B456C934007729D12538CF
:1016D00063B8225C110E45429A6854138D4A3391C7
:1016E000443413494442916422B44C84A62AAD4A3E
:1016F00023D368007817C929C842581489468A45F7
:10170000F22AB52692892642897000791C6AE6C6BB
:101710006636928D64DA26B3C95032944825D26673
:10172000F27CA36466A5027A10CA25C8E2C13E5EB7
:101730001F6F1FAF1F0E067B12A7AEC77246A20D0A
:10174000A5BAD1A4AB7A9D12077C08E2B6C7E21F06
:10175000087D11A7AEC742BAAAD76DA4A154C71974
:101760006D087E0B6A64C926283A880E027F06003F
:1017700020C80200000004FFFF00000043291124DC
:101780001FBECFEFD8E0DEBFCDBF26E0A0E7B2E0BE
:1017900001C01D92AF3DB207E1F712E0A0E0B1E059
:1017A000E8E5F8E702C005900D92A037B107D9F738
:1017B0001BE0CFEBDBE004C02197FE010E945A370B
:1017C000CE3BD107C9F70E947C2A0C942A3C0C948A
:1017D0000000662329F06A3019F0862F90E0089502
:1017E0008FEF9FEF0895CF92DF92EF92FF920F93CA
:1017F0001F93CF93DF93EC01842F8770E1E0F0E03B
:10180000082E01C0EE0F0A94EAF73E2F7E0199E7F9
:10181000E90EF11CD7019C9110E0923018F41E2FB4
:10182000913029F150E0487FE8ADF9ADC880D9800A
:10183000D60150969C91949F6001959FD00C1124E5
:101840006C0D7D2D711DDF01A60FB71F011115C095
:101850008C91812B83278D932150D1F7DF91CF91EC
:101860001F910F91FF90EF90DF90CF90089530E09F
:10187000D9CF110F330F222389F39C91912B9327FA
:101880009C938F5F877021508111F3CF9CADA90F7E
:10189000B11DF7019081923028F4913009F031E0C8
:1018A00011E0E9CF31E0E7CF80E0089580E00895CE
:1018B000CF93DF93C3E3D6E08FAFEAADFBAD0190EA
:1018C000F081E02D87E396E00995EAADFBAD02805B
:1018D000F381E02D87E396E0DF91CF91099480E4D6
:1018E00080937C0080917A00806480937A0080915C
:1018F0007A0086FDFCCF8091780090917900089560
:101900009B01DC011896ED91FC9141E067E109949F
:10191000833081F028F4813099F08230A9F0089565
:101920008730A9F08830C9F08430B1F4809180000C
:101930008F7D03C0809180008F7780938000089511
:1019400084B58F7784BD089584B58F7DFBCF80915A
:10195000B0008F778093B00008958091B0008F7DA4
:10196000F9CFCF93DF93282F30E0F901E25DF74FF5
:101970008491F901E05AF74FD491F901E45BF74FF4
:10198000C491CC23A1F081110E94880CEC2FF0E0CF
:10199000EE0FFF1FEE5BF74FA591B491EC91ED2395
:1019A00081E090E009F480E0DF91CF91089580E03C
:1019B00090E0FACF1F93CF93DF93282F30E0F90107
:1019C000E25DF74F8491F901E05AF74FD491F901A4
:1019D000E45BF74FC491CC23A9F0162F81110E942C
:1019E000880CEC2FF0E0EE0FFF1FEC5DF74FA59198
:1019F000B4918FB7F894EC91111108C0D095DE2303
:101A0000DC938FBFDF91CF911F910895DE2BF8CF2C
:101A1000CF93DF9390E0FC01E05AF74F2491845B71
:101A2000974FFC0184918823C9F090E0880F991F9B
:101A3000FC01E65EF74FA591B491FC01EC5DF74F18
:101A4000C591D49161110DC09FB7F8948C912095E8
:101A500082238C938881282328839FBFDF91CF9195
:101A60000895623051F49FB7F8943C91822F80958D
:101A700083238C93E8812E2BEFCF8FB7F894EC91D2
:101A80002E2B2C938FBFEACF3FB7F894809182031F
:101A900090918303A0918403B091850326B5A89B00
:101AA00005C02F3F19F00196A11DB11D3FBFBA2FF0
:101AB000A92F982F8827BC01CD01620F711D811DB0
:101AC000911D42E0660F771F881F991F4A95D1F735
:101AD00008958F929F92AF92BF92CF92DF92EF9232
:101AE000FF926B017C010E94440D4B015C01C1140B
:101AF000D104E104F104B9F00E94440D6819790998
:101B00008A099B09683E73408105910580F321E0B5
:101B1000C21AD108E108F10888EE880E83E0981E09
:101B2000A11CB11CE4CFFF90EF90DF90CF90BF904D
:101B3000AF909F908F9008950895AF92BF92CF92EB
:101B4000DF92EF92FF920F931F93CF93DF936C017D
:101B50007B018B01040F151FEB015E01AE18BF085E
:101B6000C017D10759F06991D601ED91FC91019010
:101B7000F081E02DC6010995892B79F7C501DF9128
:101B8000CF911F910F91FF90EF90DF90CF90BF907A
:101B9000AF900895FC01538D448D252F30E0842FA4
:101BA00090E0821B930B541710F0CF960895019785
:101BB0000895FC01918D828D981761F0A28DAE0F72
:101BC000BF2FB11D5D968C91928D9F5F9F73928FF9
:101BD00090E008958FEF9FEF08952FB7F8948091CC
:101BE000860390918703A0918803B09189032FBF4A
:101BF0008093920390939303A0939403B0939503DF
:101C00008AE893E00E94D90D97FF26C02FB7F89479
:101C10008091860390918703A0918803B0918903F6
:101C20002FBF409192035091930360919403709160
:101C30009503841B950BA60BB70B40918E03509117
:101C40008F03609190037091910384179507A60705
:101C5000B707B0F28FEF9FEF0895FC01918D828D51
:101C6000981731F0828DE80FF11D858D90E0089571
:101C70008FEF9FEF0895FC01918D228D892F90E0C9
:101C8000805C9F4F821B91098F73992708958AE882
:101C900093E00E943B0E21E0892B09F420E0822F83
:101CA000089580E090E0892B29F00E94470E811171
:101CB0000C9400000895FC01A48DA80FB92FB11D4C
:101CC000A35ABF4F2C91848D90E001968F73992772
:101CD000848FA689B7892C93A089B1898C91837050
:101CE00080648C93938D848D981306C00288F38949
:101CF000E02D80818F7D80830895EF92FF920F9376
:101D00001F93CF93DF93EC0181E0888F9B8D8C8DA7
:101D100098131AC0E889F989808185FF15C09FB79B
:101D2000F894EE89FF896083E889F989808183705E
:101D3000806480839FBF81E090E0DF91CF911F910D
:101D40000F91FF90EF900895F62E0B8D10E00F5F2E
:101D50001F4F0F731127E02E8C8D8E110CC00FB604
:101D600007FCFACFE889F989808185FFF5CFCE019C
:101D70000E945B0EF1CFEB8DEC0FFD2FF11DE35AAE
:101D8000FF4FF0829FB7F8940B8FEA89FB8980811F
:101D90008062CFCFCF93DF93EC01888D8823B9F099
:101DA000AA89BB89E889F9898C9185FD03C0808166
:101DB00086FD0DC00FB607FCF7CF8C9185FFF2CFE3
:101DC000808185FFEDCFCE010E945B0EE9CFDF91D0
:101DD000CF910895DC0180E0615038F0ED91E82763
:101DE000F0E0E65EF84F8491F7CF08950F931F93CC
:101DF000CF93DF938C01C62F642FCC32E8F4CA3224
:101E000008F041C0C83271F1C93209F442C080E023
:101E1000C034D0F1CF73F801EC0FF11D868D8F3FE8
:101E200091F1C031E0F00E94B10C21E0892B09F45E
:101E300020E0F801218F27C0CD3289F140F384EBF7
:101E40008C0F823020F7CF73C00FD12FD11D8E8D14
:101E5000411133C061E00E94080D60E08E8D0E9448
:101E6000DA0C11C0025E1F4FD0E0F80181918F01A2
:101E70008F3F31F061E0D03108F062E00E94080D40
:101E8000DF5FD63191F781E0DF91CF911F910F9104
:101E9000089570E090E080E00E94690DF4CF85E045
:101EA00090E0433010F082E090E0880F991F880F97
:101EB000991F05970197F1F7E6CF62E00E94080DA0
:101EC000E2CFDC012C911196ED91FC91F894818187
:101ED000822B81839281322F30959323928387E0E6
:101EE00090E00197F1F781818323818383E290E081
:101EF0000197F1F790817894EFECF0E03197F1F7EA
:101F0000922381E009F480E00895FC019081018032
:101F1000F281E02D292F209560FF14C0F894828172
:101F2000822382838181892B8183A3E2B0E0119790
:101F3000F1F78281982B9283789487ED90E0019756
:101F4000F1F70895F8948281822382838181892B1D
:101F50008183AFEFB0E01197F1F78281982B9283E4
:101F600078948FE090E0EBCFDF92EF92FF920F93A7
:101F70001F93CF93DF93EC01D62EE42E08E010E000
:101F8000FF24F39461E08D2D8F2109F460E0CE01F0
:101F90000E94850FFF0C01501109A1F7E11010C03C
:101FA000F894E981FA8191818881809589238183E0
:101FB000E981FA819281888180958923828378944E
:101FC000DF91CF911F910F91FF90EF90DF900895D7
:101FD000EF92FF920F931F93CF93DF938C017B01BE
:101FE00040E065E50E94B40FE70188E0E80EF11CCF
:101FF000699140E0C8010E94B40FCE15DF05C1F71A
:10200000DF91CF911F910F91FF90EF900895FC0108
:1020100090810180F281E02DF8948181292F209513
:102020008223818378943DE743E050E0315029F1E9
:10203000DA011197F1F780818923C1F3F894828145
:10204000822382838181892B81837894ABE7B7E0F7
:102050001197F1F7F894818182238183A3E1B1E0A4
:102060001197F1F78081982381E009F080E078945E
:10207000E3E6F6E03197F1F7089580E00895CF9216
:10208000DF92EF92FF928091BF069091C0060E946E
:10209000071040E06CEC8091BF069091C0060E9452
:1020A000B40F4091B60664E48091BF069091C006DB
:1020B0000E94B40F8091BA06882389F1E091B90695
:1020C0008091BB06882381F18091B60681112CC0D6
:1020D0008FB7F894C0908603D0908703E090880370
:1020E000F09089038FBF8091BF069091C0060E9437
:1020F000610F8130A1F02FB7F89480918603909101
:102100008703A0918803B09189032FBF8C199D0983
:10211000AE09BF098E3E9240A105B10520F3FF90A4
:10212000EF90DF90CF900895E9508EEE92E0E3308B
:1021300038F4F0E0EE0FFF1FE359FE4F80819181EC
:102140006C01990FEE08FF088091B706882329F0EB
:1021500060E08091B8060E94DA0CC701B6010E94C7
:10216000690D8091B7068823D1F261E08091B806AD
:10217000FF90EF90DF90CF900C94DA0C6F927F92EB
:102180008F929F92AF92BF92CF92DF92EF92FF9287
:102190000F931F93CF93DF938C01EB018091BF06C8
:1021A0009091C0060E940710882309F43FC0B8012F
:1021B0008091BF069091C0060E94E80F40E06EEB50
:1021C0008091BF069091C0060E94B40F7E016E01FF
:1021D00089E0C80ED11C8E01A090BF06B090C00649
:1021E00088E0882E912C712C66246394C5010E948E
:1021F000610F81117628660CE1E08E1A9108B1F723
:10220000F80171928F01CE16DF0631F78091BF067B
:102210009091C0060E940710813041F4F70181912E
:102220007F01811105C0E017F107C1F790E008C0F8
:1022300068E0CE010E94EA0E91E028852813F6CFCF
:10224000892FDF91CF911F910F91FF90EF90DF9039
:10225000CF90BF90AF909F908F907F906F90089598
:10226000BF92CF92DF92EF92FF920F931F93CF9383
:10227000DF93EC01B62EC72EED84EE2081F01B8695
:102280001D861C8680E02396EB2DFC2D9F01285F88
:102290003F4F999191932E173F07D9F707C00E949E
:1022A000071081110DC01B861D861C86DF91CF9102
:1022B0001F910F91FF90EF90DF90CF90BF90089506
:1022C00040E060EFCE010E94B40FD12C01E011E09C
:1022D000CE010E94610FF82ECE010E94610F91E0A5
:1022E000F9120EC0813049F5113448F2EB86E11045
:1022F00002C081E08D878B81882309F281E0C3CF02
:10230000ED2DF0E0F8120FC08B851817A0F4DE0158
:10231000AE0FBF1F13968C91802379F4F12C1930E6
:1023200008F41C87E12EEC0FFD1F8381902F909500
:10233000892383830AC08113F1CFFE01ED0DF11DC6
:102340008381802B8383FF24F3946F2DCE010E9421
:10235000850F1F5F000F11F4D39401E087E08D1506
:1023600008F0B6CFC1CFCF93DF93CDB7DEB761977B
:102370000FB6F894DEBF0FBECDBFE091BF06F0915F
:10238000C00613861586148612861186108617825B
:102390001682158214821382BE01665F7F4F809180
:1023A000BF069091C0060E94301181110DC060E0FF
:1023B00070E08EEF92EC61960FB6F894DEBF0FBE20
:1023C000CDBFDF91CF91089567E0CE010A960E94BC
:1023D000EA0E99898913EBCFBE016F5F7F4FCE0163
:1023E0000A960E94BE10882311F36A8170E0762F4E
:1023F0006627770F770F770F298148E0249F900198
:102400001124262B372B8A858031E1F468856623D9
:10241000C9F070E08F81AB01481B5109CA01969544
:10242000982F8827979587950E94F136CB01809742
:10243000B90153E0660F771F5A95E1F760789C0168
:10244000260F371F213854EE35070CF4B0CFB901F1
:10245000330F880B990B0E944E3420E030E040E0AF
:102460005CE30E94AD34A7CF20910303260F3327EE
:10247000331F21323105ECF420912903FC0190E057
:1024800080E0243069F082E00895A0910303219157
:10249000AC014F515D4FA40FB52FB11D2C93019688
:1024A000861798F380910303680F6093030380E01D
:1024B000089581E008951092290381E080932B0311
:1024C00010922A0361E082E10E94DA0C61E083E16C
:1024D0000E94DA0CE9EBF0E080818E7F80838081BE
:1024E0008D7F808388E48093B80085E48093BC006E
:1024F0000895CF93DF9391E09093E0028823B9F0A1
:10250000C091B800D091BA008091BC008A7B8093C2
:10251000BC0060E082E10E94DA0C60E083E10E948E
:10252000DA0C0E945B12D093BA00C093B800DF911E
:10253000CF910895089508950895E091D80280916B
:10254000D702E81730F4F0E0E954FD4F808190E0C5
:1025500008958FEF9FEF08959091D8028091D70250
:102560002FEF3FEF981748F4E92FF0E0E954FD4FC3
:10257000208130E09F5F9093D802C9010895809137
:10258000D7029091D802891B990B0895CF92DF92C0
:10259000EF92FF920F931F93CF93DF937C01CB01B8
:1025A0008A012091B602222389F0EB016B01C40E4F
:1025B000D51ECC15DD0569F06991D701ED91FC912F
:1025C0000190F081E02DC7010995F3CF642F0E949F
:1025D0003412C801DF91CF911F910F91FF90EF90BE
:1025E000DF90CF900895CF93DF931F92CDB7DEB7E2
:1025F00069832091B6022223F9F02091D90220327A
:1026000058F021E030E0FC013383228390E080E049
:102610000F90DF91CF9108958091DA02E82FF0E0DA
:10262000EA56FD4F998190838F5F8093DA02809301
:10263000D90281E090E0ECCF61E0CE0101960E94EA
:102640003412F7CFDC011A96ED91FC9130E020E0D6
:102650000994DC011496ED91FC9130E020E040E01B
:1026600060E10994462FDC011496ED91FC9130E075
:1026700020E06BE00994DC011696ED91FC9130E0CE
:1026800020E040E069E10994DC011696ED91FC91AF
:1026900030E020E040E068E109949A01DC01169600
:1026A000ED91FC91462F67E10994EF92FF920F9311
:1026B0001F93CF93DF931F92CDB7DEB77C018B01C1
:1026C000D8016C91673129F150F46531A0F40F9075
:1026D000DF91CF911F910F91FF90EF9008956A3194
:1026E00018F16E3FA1F7F8014181498369E2C70102
:1026F0000E9422130BC0F80141814983D70116962D
:10270000ED91FC9130E020E0C70109950E5F1F4F6D
:10271000D7CFF80181818983AE014F5F5F4F61E0C0
:10272000C7010E944D13F2CF0F5F1F4FD7011696BE
:10273000ED91FC9130E020E040E0C7010995C0CF69
:10274000462FDC011696ED91FC9130E020E066E129
:102750000994462FDC011696ED91FC9130E020E0C3
:1027600065E10994EF92FF920F931F93CF93DF934C
:10277000EC01042F7901693069F485E591E09983D2
:1027800088831C8A81E0DF91CF911F910F91FF9088
:10279000EF9008956D3009F475C038F46A3091F106
:1027A0006B3009F468C080E0EECF6E3009F47DC074
:1027B0006F30C9F70E944413F7011381110F110FF5
:1027C000110F6C89160F612F62956F706061CE01D9
:1027D0000E94A913612F6F70CE010E94A913F70107
:1027E0006481606BCE010E94A913F7014081518181
:1027F0006281660F660F660FCE010E944D13015075
:10280000A1F75DC0EA85FB8530E020E040E068E2AA
:102810000995EE81FF8130E020E040E064E1CE01E7
:10282000099541E06BE4CE010E942213E881F98111
:10283000448169E2CE010E94221340E06BE4CE01A4
:102840000E942213E881F981448169E2CE010E944D
:10285000221341E06BE4CE010E942213E881F9814A
:10286000458169E2CE010E94221360E271E0CE014F
:102870000E94551387CF6BE171E04423C1F366E1F9
:1028800071E0F5CF411109C06FE071E00E9455136E
:10289000E881F98182898C8B75CF68E071E00E94B4
:1028A0005513E881F9818389F6CF0E94441361E8CA
:1028B000CE010E94A913602FCE010E94A013CE0169
:1028C0000E943B135FCFDC011896ED91FC9130E044
:1028D00020E040E069E10994DC011896ED91FC915B
:1028E00030E020E040E068E10994CF93DF931F924D
:1028F000CDB7DEB76983BE016F5F7F4F0E94800C4A
:102900000F90DF91CF910895EF92FF921F93CF9395
:10291000DF93EC01162F7A010E946C1460E4CE0163
:102920000E947514E885F9859701412F67E1CE0172
:102930000995CE01DF91CF911F91FF90EF900C94FC
:102940006314EF92FF921F93CF93DF93EC01142F48
:102950007901663181F138F4643109F44BC0653195
:1029600079F080E022C06831C9F150F16931C9F7CE
:1029700080919502882391F1CE010E9463142EC0AC
:1029800080919502882319F0CE010E946314CE0134
:102990000E946C1460E0CE010E947514612FCE017C
:1029A0000E94751481E080939502DF91CF911F9171
:1029B000FF90EF900895642F0E94751481E0F5CF89
:1029C00080919502882319F0CE010E946314A7011B
:1029D000193138F4612FCE010E94841410929502AF
:1029E000EDCF68E1CE010E948414185188E1E80E11
:1029F000F11CEDCF8E898F3F11F488E78E8BE8852F
:102A0000F9859701412F64E1CE01DF91CF911F91AC
:102A1000FF90EF900994FC016623D9F16A30C9F167
:102A2000808D811125C06C3F48F085E0808F6170FA
:102A300070E0738B628B2EEF3FEF29C0683F20F070
:102A400084E0808F6370F4CF603F20F083E0808F5C
:102A50006770EECF603E20F082E0808F6F70E8CF2D
:102A6000262F30E0603C98F081E0808F6F71E0CFDE
:102A70008150808F2289338996E0220F331F9A95E7
:102A8000E1F76F73262B338B228B8111D4CFC901D1
:102A900008952FEF3FEFFBCF0F93DC01DE963C91C3
:102AA000DE97431BD496ED91FC9109950F91089503
:102AB000CF93DF93FC01A081B18182AD982F990F54
:102AC000990F990F95AF50969C915097903208F0BE
:102AD0009FE1990F990F990F94AF23AD922F990F02
:102AE000990F990F96AF51963C915197682F620FAD
:102AF0007727771F3617170614F4832F821B97AF9B
:102B0000EF01C05CDF4F880F880F880F890F888323
:102B1000219680EF888354968D919C915597813FA3
:102B2000910508F48883EE5BFF4F56968C91808365
:102B3000DF91CF9108950F93FC01EB5BFF4F308144
:102B400031965081451730F4301738F0041728F0CB
:102B500080E013C03017D0F3FBCFFC01ED5BFF4FDB
:102B600030818C5B9F4FFC018081681740F481E0CD
:102B7000321718F081E0261758F70F910895321791
:102B8000C8F3E6CF2F923F924F925F926F927F925F
:102B90008F929F92AF92BF92CF92DF92EF92FF926D
:102BA0000F931F93CF93DF93EC014C0183E4880EC6
:102BB000911CF4011082329720805E01F4E4AF0E84
:102BC000B11CF50120823FAC6E01F5E4CF0ED11CA3
:102BD000F6013082359740807E01F6E4EF0EF11C5D
:102BE000F701408234961081329760803196708070
:102BF00032975080012F262D472D652DCE010E9442
:102C00009B15CD58DF4F811114C01882DF91CF91F1
:102C10001F910F91FF90EF90DF90CF90BF90AF90FA
:102C20009F908F907F906F905F904F903F902F90EC
:102C3000089581E08883552011F0F40150826214D8
:102C400010F4F5016082371410F4F6017082141547
:102C5000E8F6F7011083DACF0F93DC01802FFD0136
:102C6000ED58FF4F90819923E9F12223D9F12230C9
:102C700020F0023079F56F5F621B082F0170FD01B3
:102C800080FD32C0EB5BFF4F8081481758F13196D1
:102C90008081481738F53297908131978081260FCF
:102CA0002617F0F46917D8F42FEF290F8217D0F404
:102CB000681708F4682F291708F4922F961BD696E8
:102CC000ED91FC91D7970480F581E02D292FCD015E
:102CD000099508C0033089F64F5F421BCECF682F9D
:102CE000691720F30F910895ED5BFF4F80816817FE
:102CF000C8F3319680816817A8F732969081319792
:102D00008081240F241778F4491760F42FEF290FDE
:102D1000821740F7481708F4482F291708F4922F14
:102D2000941BCDCF482F4917E8F6F2CF0F9390911F
:102D30007C066917A0F090917D06691780F4909148
:102D40007A06891760F090917B06891740F4462F28
:102D5000682F00E021E087E396E00E942C160F9197
:102D60000895FF920F931F93CF93DF93F82ED62FE2
:102D7000142FC22F00FF0CC0622F6D1B842F8F0DEC
:102D80000E9496166C2F6F198D2F810F0E94961638
:102D900001FF0CC06C2F6D1B812F8F190E9496169E
:102DA0006C2F6F19812F8D1B0E94961603FF0CC08C
:102DB0006C2F6D0F812F8F0D0E9496166C2F6F0D4B
:102DC0008D2F810F0E94961602FF11C06C2F6D0F80
:102DD000812F8F190E9496166C2F6F0D812F8D1BDE
:102DE000DF91CF911F910F91FF900C949616DF9178
:102DF000CF911F910F91FF9008950F931F93CF9341
:102E0000DF93C82FD62F142F02E0060F22E0280FE1
:102E10004FEF460F6FEF680F87E396E00E949B1518
:102E2000882369F0012F2D2F4C2F61E080E00E9454
:102E3000B1162D2F4C2F60E081E00E94B116DF917A
:102E4000CF911F910F910895CF92DF92EF92FF9251
:102E50000F931F93CF93DF93C82FF62ED42F122FEB
:102E6000D62ED20EE82EE40E0D2D2E2D462F682FD5
:102E700087E396E00E949B15882309F44DC0EA94ED
:102E8000EA94DA94DA9442E0CC24C394CF0C6C2D0B
:102E900001E00C0F802F0E94FD1641E06C2D8E2D5D
:102EA0000E94FD1644E06D2D802F0E94FD1648E023
:102EB0006D2D8E2D0E94FD16CC24CA94CD0E92E06D
:102EC000D92EDF0C8EEF8D0F8330A8F0D45000E0A8
:102ED0002D2F4F2D82E0E82EEC0E6E2D87E396E02D
:102EE0000E942C164FEF410F4F0D2D2F6E2D87E3B3
:102EF00096E00E942C16145001E0212F4D2D6C2FCE
:102F000087E396E00E942C166C2F6C0D212F4D2D1F
:102F100087E396E00E942C16DF91CF911F910F91CD
:102F2000FF90EF90DF90CF900895213039F020F09E
:102F3000223031F0840F0895860F0895841B089580
:102F4000861B0895213039F020F0223031F0861BA5
:102F50000895840F0895860F0895841B08955F9245
:102F60006F927F928F929F92AF92BF92CF92DF9299
:102F7000EF92FF920F931F93CF93DF935C01162F75
:102F8000642EEC01C15BDF4FDC80ED804C0189E7F2
:102F9000880E911CFE80FD18C12EF11608F4CF2C6E
:102FA0005B800C85202F4E2D6D2D8A810E949517F8
:102FB000782E202F4E2D6D2D852D0E94A217482F83
:102FC000662071F08A85F40180832C2D672DC50160
:102FD0000E942C161F1548F01F19E394D12CDACF4C
:102FE00089858111F7CF8B85EECF1D0D1C83ED8276
:102FF000DF91CF911F910F91FF90EF90DF90CF90D5
:10300000BF90AF909F908F907F906F905F9008954A
:10301000DC0118964C911897ED91FC911197249131
:1030200030E0042E02C0359527950A94E2F7842FEC
:10303000860F883068F031961196FC93EE93E491F8
:1030400098E0941B01C0EE0F9A95EAF72E2B88505A
:1030500018968C938FEF9FEF01C0880F6A95EAF75F
:103060008095822308950F931F93CF93DF938C0154
:10307000EC01C15BDF4F798368831886FC01E05A5D
:10308000FF4F6081CE010E9408188E83F801EF592E
:10309000FF4F6081CE010E9408188F83F801E75826
:1030A000FF4F90819A8781E0911180E08B87DF91BB
:1030B000CF911F910F910895CF93C62F0E940818AA
:1030C000C15021E030E001C0220FCA95EAF7821B0F
:1030D000CF910895FC01E60FF11D849190E0982FA7
:1030E00088273196E4918E0F911D0895CF93DF9339
:1030F00020918206309183062817390709F490C081
:10310000EC019093830680938206FC018491809366
:1031100093063196E491E0939406FE013296E49191
:10312000E0939506FE013396E491E0939606FE0146
:103130003496E491E0939706FE013596E491E0938E
:103140009806FE013696E491E0939906FE013796C3
:10315000E491E0939A06FE013896E491E0939B0691
:10316000FE013996E491E0939C06FE013A96E491C3
:10317000E0939D06FE013B96E491E0939E06FE01DE
:103180003C96E491E0939F06FE013D96E491E09326
:10319000A006FE013E96E491E093A106FE013F9653
:1031A000E491E093A206FE017096E491E093A306F9
:1031B00061E1CE010E946A189093A5068093A4064F
:1031C00063E1CE010E946A189093A7068093A60639
:1031D00065E1CE010E946A189093A9068093A80623
:1031E0008091820690918306892BD1F08091A00670
:1031F0008093AC064091A1064093AD069091AB063A
:10320000992371F0913079F49091A206891714F402
:103210009093AC068091A306841714F48093AD06B6
:10322000DF91CF91089530919D0620919F06082E41
:10323000000C990B622F022E000C770B630F711D8F
:1032400037FD7A95861797071CF4320F3093AC063A
:10325000241734F72093AD06E3CFEF92FF920F933C
:103260001F93CF93DF93FC01E55BFF4F20813181FA
:10327000295E3F4F6F3F710509F048F561367105D2
:10328000D8F081599F4FFC0180819181280F391F0F
:10329000C9010196FC014491442309F447C0F90196
:1032A00044914617170671F40196DF91CF911F9153
:1032B0000F91FF90EF9008956134710548F38359A1
:1032C0009F4FE1CFFC018491280F311DE1CF8B018D
:1032D000FC01EF58FF4FC081D181C20FD31F7E0187
:1032E00060E0C7010E946A18C80FD91F62E0C701D9
:1032F0000E946A18F4E0EF0EF11C8017910780F32A
:10330000FE01849190E0982F88273196E4918E2BCE
:10331000009761F00817190719F4CE010396C5CF7D
:10332000FE013296E491CE0FD11DEACF90E080E00D
:10333000BCCFEF92FF921F93CF93DF9310928C0636
:1033400010924F067C01D0EC10E0C0E0F7016191D3
:103350007F01E0913906F0913A0687E396E00995FE
:103360008F3F980769F18E3F2FEF920779F3BC01E9
:1033700087E396E00E942D19009701F1BC0187E3D5
:1033800096E00E9433186091990686E896E00E94C4
:103390005C188093AE0660919A0686E896E00E94DB
:1033A0005C1860919B0686E896E00E945C18182FD6
:1033B000D03C11F4D091AE06C80FC8CF80E0F7CF53
:1033C00080918C06882341F09091AE06890FC80F3A
:1033D000C11B1D160CF4CD0F8C2FDF91CF911F91C7
:1033E000FF90EF9008958F929F92AF92BF92CF92ED
:1033F000DF92EF92FF920F931F93CF93DF93EC0135
:10340000062F142F7901FC01E55AFF4F808181308E
:1034100009F46CC008F460C0823009F471C08330D4
:1034200009F478C0FE01EF5AFF4F008331961083F4
:10343000B701CE010E942D19009709F4D5C07E0175
:103440002FE4E20EF11CBC01CE010E943318FE01F4
:10345000EA5AFF4FC0803C966081C7010E945C1809
:10346000982EFE01ED59FF4F6081C7010E945C1844
:10347000B82EFE01EC59FF4F6081C7010E945C1815
:10348000A82EF701068110160CF086C0D484BC0C5F
:10349000B1942D2D4B2D692D82810E949517182FE7
:1034A000F70182832D2D4B2D692D83810E94A21758
:1034B000482FF7018383F1E0DF1609F47BC0DF16A4
:1034C00098F122E0D21609F47BC083E0D81609F403
:1034D00082C0042F212F2CC0FE01E35BFF4F01901F
:1034E000F081E02DCE010995180F9CCFFE01E35B22
:1034F000FF4F0190F081E02DCE010995081B92CF7E
:10350000FE01E35BFF4F0190F081E02DCE010995B4
:10351000181B88CFFE01E35BFF4F0190F081E02D87
:10352000CE010995080F7ECF202F210F0C2D080FFB
:10353000612FCE010E949B15882371F1F70114823F
:1035400015828E01025A1F4F4E01FFE58F0E911C0E
:10355000F8016081C7010E940818B82EF40160814B
:10356000C7010E940818D82E40E06B2DCE010E94A2
:10357000AF1741E06D2DCE010E94AF1761E0C7018A
:103580000E9408188111F0CFF70185818C1504F392
:10359000C758DF4F828588838A2DDF91CF911F9195
:1035A0000F91FF90EF90DF90CF90BF90AF909F90E2
:1035B0008F900895DC1821E0210F080F1D0DB8CF62
:1035C00081E0982F901B21E0210F8C1901E0040F5E
:1035D000480F190FADCF2C2D210F842F801B01E038
:1035E000040F41E0480FA4CF80E0D7CF9A01462FC7
:1035F000682F87E396E00C94F319FF920F931F93C3
:10360000CF93DF93C82FD62F10924F068A01F12C4B
:10361000F80161918F01E0913906F0913A0687E354
:1036200096E009958F3F9807F1F08E3F2FEF9207B4
:1036300079F39C014D2F6C2F87E396E00E94F319DC
:1036400090919206913049F030F0923041F09330F1
:1036500041F0F80EDDCFC80FFCCFD80FFACFC81B52
:10366000F8CFD81BF6CF8F2DDF91CF911F910F91FF
:10367000FF90089529EE3BE030933A0620933906F7
:103680000C94FD1AAF92BF92CF92DF92EF92FF920D
:103690000F931F93CF93DF9300D000D01F92CDB72D
:1036A000DEB78C01DC01DA96AC90DA97DB96EC9011
:1036B000DB97ED91FC91B188FE2CD12CC12CD80167
:1036C000ED91FC9111978089D8962D913C911C82A7
:1036D000FD828B83B8E08B9FC00111248C9DA001DB
:1036E0008D9D500D9C9D500D1124240F351F3A8344
:1036F0002983D8011496ED91FC919E012F5F3F4FD5
:1037000041E06FE0C8010995F3948F2D8E198A1559
:1037100028F4BFEFCB1ADB0AFB1488F20F900F904E
:103720000F900F900F90DF91CF911F910F91FF900D
:10373000EF90DF90CF90BF90AF90089587E396E031
:103740000E94421B87E396E00C942913CF92DF92EC
:10375000EF92FF920F931F93CF93DF93EC01962F7D
:10376000683109F44BC0B901993130F49431C9F092
:10377000973189F080E006C0993109F461C0903238
:10378000C9F781E0DF91CF911F910F91FF90EF90EA
:10379000DF90CF90089550E087E294E00E94C61237
:1037A000F0CF8C859D85AE85BF85892B8A2B8B2B91
:1037B00071F4E881F981A585B0E020EA36E841E0BE
:1037C00050E00E9481356C877D878E879F8710929D
:1037D000D8021092D7021092DA021092D9020E94F7
:1037E0005B128AE992E190930203809301038BE9D3
:1037F00092E19093060380930503C3CF2C853D850A
:103800004E855F8560E074E284EF90E00E940537AA
:10381000205131094109510956954795379527950A
:103820002093B8008E8990E09595879591E09093CC
:10383000B602809394021092DA021092D902A1CFBC
:10384000D091D902D13208F093C0C09194020E9465
:10385000440D6B017C0180912903811164C082E0D9
:103860008093290381E080932B038FEF80932803BB
:1038700010924D03D0934C03A6E9B2E0ECE2F3E0E2
:1038800080E0D8137CC010924E0380914E03CC0F81
:10389000C82BC0934E0380912A03813009F073C076
:1038A00010922A030E94440D6B017C0180914E030B
:1038B0008093BB008091DC029091DD02A091DE023A
:1038C000B091DF02892B8A2B8B2B99F00E94440D3B
:1038D0000091DC021091DD022091DE023091DF02C6
:1038E0006C197D098E099F090617170728073907E4
:1038F000D8F18091BC0083FDD9CF85EC8093BC00CA
:103900000E94440D6B017C01809129038230E9F112
:10391000809128038F3F61F180912803803241F12B
:103920008091280325C08091DC029091DD02A09156
:10393000DE02B091DF02892B8A2B8B2B09F48BCF0F
:103940000E94440D0091DC021091DD022091DE0204
:103950003091DF026C197D098E099F090617170740
:103960002807390708F077CF8091DB020E9479128F
:103970001092DA021092D9021092B60202CF9D91F3
:1039800091938F5F7ECF85EEB9CF8091DC029091CD
:10399000DD02A091DE02B091DF02892B8A2B8B2BF6
:1039A00009F4B2CF0E94440D0091DC021091DD02B7
:1039B0002091DE023091DF026C197D098E099F098A
:1039C000061717072807390708F09ECFCDCFCF92EB
:1039D000DF92EF92FF928EE480937C0062E070E0D1
:1039E00080E090E00E94690D80917A00806480936D
:1039F0007A0080917A0086FDFCCF8091780020913A
:103A0000790030E0322F2227032E000C440B550B97
:103A1000282B60E070E381E190E00E942737CA0123
:103A2000B9010E944E3420E030E04AE754E40E949D
:103A30003F366B017C012DEC3CEC4CEC5DE30E94CD
:103A4000AD34A70196010E94D3356B017C0126E6B7
:103A500036E646E850E40E94E73687FD0AC085E373
:103A600080930001C701B601FF90EF90DF90CF90E7
:103A7000089520E030E040E850E4C701B6010E941C
:103A8000E73687FD02C084E3EBCF2AE939E949E74D
:103A900050E4C701B6010E94E73687FD02C083E308
:103AA000DFCF23E333E343E750E4C701B6010E94CD
:103AB000E73687FD02C081E3D3CF80E3D1CFCF9239
:103AC000DF92EF92FF920F931F93CF93DF936C01DE
:103AD000EB017B01E40EF51E10E000E0CE15DF05E2
:103AE00061F06991D601ED91FC910190F081E02D9A
:103AF000C6010995080F191FF1CFC801DF91CF91B9
:103B00001F910F91FF90EF90DF90CF900895CF928B
:103B1000DF92EF92FF920F931F93CF93DF93EC010D
:103B20006C0124E0C20ED11CFC01E158FF4F019052
:103B3000F081E02DC60109958E3FEFEF9E07C8F496
:103B40008E010E571F4F7E01F1E8EF0EF11C9C0114
:103B5000F8014081F7016081C6010E94F319C15A42
:103B6000DF4F98819130A9F078F09230A1F0933036
:103B7000B9F081E090E0DF91CF911F910F91FF901C
:103B8000EF90DF90CF900895F7019081890F8083A7
:103B9000F0CFF801FACFF7019081981B892FF7CF6A
:103BA000F801FACF90E080E00895FC010190002038
:103BB000E9F73197AF01481B590BBC018AE893E044
:103BC0000C949D0D8F929F92AF92BF920F931F9373
:103BD000CF93DF93CDB7DEB7A1970FB6F894DEBFD2
:103BE0000FBECDBF19A2423008F44AE08E010F5D2E
:103BF0001F4F842E912CB12CA12CA50194010E9461
:103C00000537E62FB901CA01EA30F4F4E05DD801C6
:103C1000EE938D01232B242B252B79F790E080E068
:103C2000109719F0CD010E94D51DA1960FB6F894FA
:103C3000DEBF0FBECDBFDF91CF911F910F91BF901F
:103C4000AF909F908F900895E95CE1CFCF93DF9381
:103C50000E94D51DEC0189EA91E00E94D51D8C0FD0
:103C60009D1FDF91CF9108954F925F926F927F9247
:103C70008F929F92AF92BF92CF92DF92EF92FF927C
:103C8000CF93DF93CDB7DEB728970FB6F894DEBF9A
:103C90000FBECDBFC0907B03D0907C03E0907D032E
:103CA000F0907E034090740350907503609076030B
:103CB00070907703A3019201C701B6010E94E73615
:103CC00087FD29C084E48093010160917A038DE02F
:103CD0000E94DA0C6091780384E00E94DA0C60E0C4
:103CE00086E00E94DA0C8CEA91E028960FB6F894F0
:103CF000DEBF0FBECDBFDF91CF91FF90EF90DF9081
:103D0000CF90BF90AF909F908F907F906F905F907B
:103D10004F900C94261E8091700390917103A09196
:103D20007203B091730389839A83AB83BC839C0134
:103D3000AD01C701B6010E9447341816A4F087E40C
:103D40008093010160917A038DE00E94DA0C60910A
:103D5000790386E00E94DA0C60E084E00E94DA0CCD
:103D60008FEA91E0C2CF29813A814B815C81C30106
:103D7000B2010E94D2354B015C0120E030E040E40A
:103D800050E40E943F366D837E838F8398879B012A
:103D9000AC01C301B2010E94D2359B01AC01C70145
:103DA000B6010E94E73618169CF484E58093010161
:103DB0006091780384E00E94DA0C60E086E00E9463
:103DC000DA0C60E08DE00E94DA0C82EB91E08DCF9E
:103DD0002D813E814F81588569817A818B819C81BB
:103DE0000E94D3359B01AC01C701B6010E94473444
:103DF00087FF13C085E5809301016091790386E018
:103E00000E94DA0C60E084E00E94DA0C60E08DE051
:103E10000E94DA0C86EB91E068CF40904F035090FF
:103E200050036090510370905203EFE4F3E08481FB
:103E30009581A681B78181939193A193B19393E0EA
:103E4000EB36F907A1F740926B0350926C03609236
:103E50006D0370926E03209153033091540340918F
:103E600055035091560360914F0370915003809118
:103E70005103909152030E94D33520915703309102
:103E800058034091590350915A030E94D335209111
:103E90005B0330915C0340915D0350915E030E948F
:103EA000D33569837A838B839C832091630330911C
:103EB0006403409165035091660360915F037091C4
:103EC000600380916103909162030E94D335209139
:103ED0006703309168034091690350916A030E941F
:103EE000D335A30192010E94D3359B01AC016981B6
:103EF0007A818B819C810E94D2352B013C0120E08C
:103F000030E0A9010E94E7361816C4F520E030E041
:103F100040E05FE3C501B4010E94AD349B01AC01F8
:103F2000C701B6010E94473487FF28C080917903FA
:103F3000882361F061E086E00E94DA0C60E084E0B2
:103F40000E94DA0C8AEB91E00E94261E8BE580939A
:103F5000010128960FB6F894DEBF0FBECDBFDF91EA
:103F6000CF91FF90EF90DF90CF90BF90AF909F9058
:103F70008F907F906F905F904F90089520E030E099
:103F8000A901C301B2010E94473487FF1FC020E08E
:103F900030E040E05FE3C501B4010E94AD349B0115
:103FA000AC01C701B6010E94E73618167CF4809177
:103FB0007803882359F261E084E00E94DA0C60E023
:103FC00086E00E94DA0C8EEB91E0BECF60E08DE0DF
:103FD0000E94DA0C60E084E00E94DA0C60E086E087
:103FE0000E94DA0CB3CFCF93DF93FC01448155815B
:103FF000608171818AE893E00E949D0DEC0189EA5D
:1040000091E00E94D51D8C0F9D1FDF91CF910895E7
:104010004F925F926F927F928F929F92AF92BF92D8
:10402000CF92DF92EF92FF920F931F93CF93DF9384
:10403000CDB7DEB72E970FB6F894DEBF0FBECDBF5B
:104040006C015B014090740350907503609076039F
:104050007090770320E030E0A901C301B2010E9413
:10406000E7363BEA832E31E0932E87FF04C022EC33
:10407000822E21E0922E20E030E0A90160917003B1
:104080007091710380917203909173030E94E736DF
:104090009BEAE92E91E0F92E87FF04C082ECE82E1E
:1040A00081E0F82EC301B2010E94B1368B0177FF87
:1040B00004C000271127061B170BE89477F8B801F6
:1040C000012E000C880B990B0E944E349B01AC0111
:1040D000C301B2010E94D23520E030E040E251E459
:1040E0000E94AD340E94B1367F936F931F930F935C
:1040F0009F928F9284EC91E09F938F931F9287E021
:104100008F93CE0101964C019F938F930E947C392F
:10411000409070035090710360907203709073032D
:10412000C301B2010E94B1368B0177FF04C00027A2
:104130001127061B170BE89477F8B801012E000C25
:10414000880B990B0E944E349B01AC01C301B20154
:104150000E94D23520E030E040E251E40E94AD34CC
:104160000E94B1367F936F931F930F93FF92EF924C
:1041700084EC91E09F938F931F9287E08F938E0141
:10418000085F1F4F1F930F930E947C39B801C50130
:104190000E945B39B401C6010E945B390FB6F894E6
:1041A000DEBF0FBECDBF2E960FB6F894DEBF0FBE9A
:1041B000CDBFDF91CF911F910F91FF90EF90DF90D6
:1041C000CF90BF90AF909F908F907F906F905F90B7
:1041D0004F900895CF93DF93EB010E946B35888356
:1041E000CE01DF91CF910895CF92DF92EF92FF92AF
:1041F0000F931F93CF93DF93EB017B0124E0E20E3B
:10420000F11C8B016C01C61AD70AC601800F911FE1
:104210000E946B35F80181938F01EE15FF05A9F718
:10422000CE01DF91CF911F910F91FF90EF90DF9022
:10423000CF900895FC0180819181009711F00C943A
:104240009F3160E070E0CB010895CF93DF93FC01D4
:10425000248135814217530788F4C081D181FB0145
:1042600060817181CE01840F951F0E946239009791
:1042700029F08C1B9D0BDF91CF9108958FEF9FEF5D
:10428000FACF0F931F93CF93DF938C01EB01FC01C7
:10429000808191810097E1F06881798161157105D4
:1042A000A9F0428153812C813D814217530770F060
:1042B0000E945B398C819D81F801958384831D82E6
:1042C0001C82DF91CF911F910F9108950E94FC37BE
:1042D00088819981F801918380838A819B8193836E
:1042E00082838C819D8195838483198218821B82AD
:1042F0001A82E5CFCF93DF93EC01888199810097F3
:1043000011F00E94FC37198218821D821C821B82C8
:104310001A82DF91CF910895FC01808191810097ED
:1043200011F00C94FC3708950F931F93CF93DF93F4
:10433000EC0188819981009759F02A813B812617E9
:10434000370730F081E0DF91CF911F910F910895F1
:104350008B016F5F7F4F0E948538009759F09983DA
:1043600088831B830A832C813D81232B59F7FC0111
:104370001082E8CF80E0E7CFEF92FF920F931F9378
:10438000CF93DF936115710541F480E0DF91CF9108
:104390001F910F91FF90EF90089541155105B1F0D5
:1043A0007B01EC010C811D81040F151FB8010E94D7
:1043B0009421882351F3288139818C819D81B70113
:1043C000820F931F0E945B391D830C8381E0DECF37
:1043D000CF93DF93EC0141E050E06CEC71E00E9480
:1043E000BC21811103C0CE010E947A21CE01DF9150
:1043F000CF910895CF93DF93EC01FB014481558168
:10440000608171810E94BC21811103C0CE010E9494
:104410007A21CE01DF91CF910895EF92FF920F9311
:104420001F93CF93DF93EC017B018A01BA010E94B5
:10443000942181110BC0CE010E947A21CE01DF911F
:10444000CF911F910F91FF90EF9008951D830C83E2
:10445000B701888199810E945B39F0CFFB010190FF
:104460000020E9F73197AF01461B570B0C940D2242
:104470000F931F93CF93DF93CDB7DEB729970FB676
:10448000F894DEBF0FBECDBF8C01862FF8011182DC
:10449000108213821282158214824AE0BE016F5F7D
:1044A0007F4F90E00E94E631BE016F5F7F4FC801F1
:1044B0000E942E2229960FB6F894DEBF0FBECDBF04
:1044C000DF91CF911F910F910895EF92FF920F937B
:1044D0001F93CF93DF93CDB7DEB7A1970FB6F894B4
:1044E000DEBF0FBECDBF7C01CB01BA01F701118247
:1044F000108213821282158214828E010F5F1F4F69
:1045000022E044E00E948131009789F0BC01C7019C
:104510000E942E22A1960FB6F894DEBF0FBECDBF2B
:10452000DF91CF911F910F91FF90EF900895C701F8
:104530000E947A21EFCF0F931F93CF93DF93CDB7D4
:10454000DEB762970FB6F894DEBF0FBECDBF8C0109
:10455000CB01F8011182108213821282158214821B
:104560004AE0BE016F5F7F4F0E94C631BE016F5FA0
:104570007F4FC8010E942E2262960FB6F894DEBFCC
:104580000FBECDBFDF91CF911F910F910895FC0118
:10459000118210821382128215821482FB01019013
:1045A0000020E9F73197AF01461B570B0C940D2201
:1045B000AF92BF92CF92DF92EF92FF920F931F9331
:1045C000CF93DF936C015B017A01890124173507D2
:1045D00020F48F2D7901042F182F6BEA71E0C601AA
:1045E0000E94C722D5011496CD91DC91EC16FD06F0
:1045F000E0F40C171D0708F4E801D501ED91FC91DA
:104600001197EC0FFD1F108110826D917C916E0D42
:104610007F1DC60161157105A1F00E942E22F501D2
:1046200080819181C80FD91F1883C601DF91CF9176
:104630001F910F91FF90EF90DF90CF90BF90AF90C0
:1046400008950E947A21EBCFFB01DC0111961C92A8
:104650001E9213961C921E92129715961C921E92F1
:1046600014978617970749F060817181611571056C
:1046700021F0448155810C940D22089585ED80939D
:10468000BC008091DC029091DD02A091DE02B0912D
:10469000DF020796A11DB11D23E0B695A79597955A
:1046A00087952A95D1F72091BC0024FD03C0109274
:1046B000290308954091DC025091DD026091DE02F1
:1046C0007091DF02452B462B472B69F30097A1051C
:1046D000B10541F02AE22A95F1F700C00197A1093E
:1046E000B109E1CF8091DB020C947912FC01A08129
:1046F000B18150962C9182AD38E0839FC001112486
:10470000289FA001299F500D112470E060E080AD2A
:1047100091AD0C944B39CF93DF9368EC70E080E05F
:1047200090E00E94690D0E943F100E94B3116093B7
:104730007B0370937C0380937D0390937E0320E042
:1047400030E04CEF52EC0E94473418160CF444C091
:1047500087E396E00E94762381E59CE00E9476182C
:104760004EEC51E066E180E10E943A1B0E949E1BE4
:1047700060E086E00E94DA0C60E084E00E94DA0CDF
:104780008FED91E00E94261EC0E0D1E06C2F8DE0FD
:104790000E94DA0CCD270E943F100E94B311609353
:1047A0007B0370937C0380937D0390937E0320E0D2
:1047B00030E04AEF52EC0E94E73687FF07C064EF13
:1047C00071E080E090E00E94690DE0CF8EEE91E014
:1047D000DF91CF910C94261EDF91CF910895FF9227
:1047E0000F931F93CF93DF93EC01F62E088119816D
:1047F000C8010E946B35F81621F06F2DC8010E9488
:104800007335CE01DF91CF911F910F91FF900895E5
:10481000EF92FF920F931F93CF93DF9300D0CDB70A
:10482000DEB78C017B019A838983FB016081CE0115
:1048300001960E94EF230F5F1F4F1A830983F70130
:104840006181CE0101960E94EF23C7010F900F9066
:10485000DF91CF911F910F91FF90EF900895AF924C
:10486000BF92CF92DF92EF92FF920F931F93CF935D
:10487000DF9300D0CDB7DEB78B016B0124E0C20E11
:10488000D11C7B015C01A61AB70AC5018E0D9F1DC4
:104890009A838983F70161917F01CE0101960E947D
:1048A000EF23EC14FD0489F7C8010F900F90DF91FE
:1048B000CF911F910F91FF90EF90DF90CF90BF901D
:1048C000AF9008950F931F93CF93DF9300D0CDB790
:1048D000DEB78B019A838983FB016081CE0101964B
:1048E0000E94EF23C8010F900F90DF91CF911F918D
:1048F0000F91089564E773E083E090E00E942F2415
:1049000060E773E088E090E00E942F246AE773E09C
:1049100090E080E00E94622469E773E081E090E02B
:104920000E94622468E773E082E090E00E946224C3
:104930008EEF91E00C94261EEF92FF920F931F933F
:10494000CF93DF93CDB7DEB72E970FB6F894DEBFC7
:104950000FBECDBF0E943F100E94B31160937B0336
:1049600070937C0380937D0390937E0320E030E07E
:104970004CEF52EC0E944734181614F00E948B231F
:1049800087E396E00E947623BE01685F7F4FCE01E9
:1049900001960E94082081E59CE00E9476184CE078
:1049A00052E06CE083E00E943A1B09EE1BE010939A
:1049B0003A06009339068CE092E00E949919F82E8D
:1049C000AE014F5F5F4F6CE00E943A1B42E152E044
:1049D0006FE183E00E943A1BAE01485F5F4F6FE1D9
:1049E0008F2D0E943A1B10933A0600933906CE0190
:1049F00001960E949919E82E10933A060093390601
:104A0000CE0108960E94991910933A060093390630
:104A1000E81608F4A6C0CE0101960E9499191F2D30
:104A2000180F80917F0381119FC00E946F0C97FD2A
:104A300003967C01F594E794F594E794B7016458E4
:104A40007109072E000C880B990B0E944E3420919F
:104A500070033091710340917203509173030E946F
:104A6000E73618168CF4B70163587109072E000C4D
:104A7000880B990B0E944E346093740370937503F6
:104A800080937603909377032FE041E0410F61E03C
:104A900081E00E94241783E595E00E94761889E062
:104AA000810F90917A034FE450E0911102C041E5EB
:104AB00050E068E10E94F61A86E994E00E947618B8
:104AC00081E2810F9091790345E450E0911102C099
:104AD00042E450E068E10E94F61A82EE93E00E9400
:104AE0007618195C8091780342E450E0882331F015
:104AF00082E691E00E94761847E550E068E1812F58
:104B00000E94F61A0E94341E80917F038530D1F4F2
:104B10000E947A241092800310927F0387E396E02C
:104B20000E94762382EE93E00E94761841E450E0E2
:104B300068E188E30E94F61A60E971E080E090E0A5
:104B40000E94690D0E949E1B2E960FB6F894DEBF40
:104B50000FBECDBFDF91CF911F910F91FF90EF90CE
:104B60000895CE01089659CF8130E9F50E946F0C67
:104B700097FD039695958795959587957C0123E8F4
:104B8000E21AF1088EECE8168FEFF80624F48EECAA
:104B9000E82EFF24FA94B7016F5F7F4F072E000CB9
:104BA000880B990B0E944E34209174033091750349
:104BB00040917603509177030E94473487FF0EC0DF
:104BC000B701FF0C880B990B0E944E346093700361
:104BD0007093710380937203909373032FE041E00D
:104BE000410F63E155CF823071F526E146E165E082
:104BF00087E0810F0E94241787E00E94B10C019783
:104C000009F049CF68E270E080E090E00E94690D11
:104C100087E00E94B10C019709F03DCF80917A03A3
:104C2000882339F010927A0360E08DE00E94DA0C5C
:104C300003C081E080937A0360EA70E080E090E056
:104C40000E94690D28CF833031F526E146E165E009
:104C50008EE1810F0E94241787E00E94B10C01971A
:104C600009F019CF68E270E080E090E00E94690DE1
:104C700087E00E94B10C019709F00DCF8091790374
:104C8000882329F01092790360E086E0CFCF81E09D
:104C900080937903D1CF843009F0FDCE26E146E13F
:104CA00065E083E3810F0E94241787E00E94B10C26
:104CB000019709F0F0CE68E270E080E090E00E9499
:104CC000690D87E00E94B10C019709F0E4CE809154
:104CD0007803882329F01092780360E084E0A6CF5F
:104CE00081E080937803A8CF8F929F92AF92BF927A
:104CF000CF92DF92EF92FF92CF93DF9300D0CDB7A8
:104D0000DEB768EC70E080E090E00E94690D0E94E0
:104D1000E71C20E030E040E750E40E9447341816DA
:104D20000CF4DFC088E192E00E94261E0E94E71C7E
:104D30006B017C01AC019B010E94EC36882309F4D5
:104D40003EC083E292E00E94D51D89EA91E00E9474
:104D5000D51D8EE090E09A83898360E0CE010196B4
:104D60000E94EF2387E396E00E94762384E798E091
:104D70000E9476184091000150E06AE18CE30E94A5
:104D8000F61A0E949E1B60E086E00E94DA0C60E04A
:104D900084E00E94DA0C0E94E71C2DEC3CEC4CE60F
:104DA00050E40E94473418160CF49BC068EE73E080
:104DB00080E090E00E94690D60E08DE0EACF46015E
:104DC0005701E894B7F82FEF3FEF4FE75FE7C501D2
:104DD000B4010E94EC3681110DC02FEF3FEF4FE779
:104DE0005FE7C501B4010E94473418161CF487E23E
:104DF00092E0A9CF2FEF3FEF4FE75FE4C701B60185
:104E00000E94E73618161CF48BE292E09CCF2FEF3D
:104E10003FEF4FE75FECC701B6010E94473487FDC3
:104E2000F3CF20E030E0A901C701B6010E9447346A
:104E300087FF09C06DE28AE893E00E947D0EF7FAD1
:104E4000F094F7F8F0942AE037ED43EA5BE3C7010A
:104E5000B6010E94D3354B015C010E94B8366B014C
:104E60007C010E944C349B01AC01C501B4010E943D
:104E7000D2354B015C014AE0C701B6010E94E21D38
:104E80006EE28AE893E00E947D0E20E030E040E28E
:104E900051E4C501B4010E94AD344B015C010E9494
:104EA000B8366B01F12CE12C4AE0C701B6010E9433
:104EB000E21DC701B6010E944C349B01AC01C50143
:104EC000B4010E94D23520E030E040E251E40E947B
:104ED000AD340E94B83690E080E04AE00E94E21DC6
:104EE00034CF8FE292E00E94261E0F900F90DF9148
:104EF000CF91FF90EF90DF90CF90BF90AF909F90B9
:104F00008F9008951F920F920FB60F9211242F9336
:104F10003F938F939F93AF93BF938091860390911C
:104F20008703A0918803B09189033091810323E026
:104F3000230F2D3758F50196A11DB11D2093810334
:104F40008093860390938703A0938803B09389038B
:104F50008091820390918303A0918403B091850393
:104F60000196A11DB11D8093820390938303A093AA
:104F70008403B0938503BF91AF919F918F913F912F
:104F80002F910F900FBE0F901F90189526E8230FBA
:104F90000296A11DB11DD2CF1F920F920FB60F9294
:104FA00011242F933F934F935F936F937F938F932E
:104FB0009F93AF93BF93EF93FF938AE893E00E9490
:104FC0005B0EFF91EF91BF91AF919F918F917F9178
:104FD0006F915F914F913F912F910F900FBE0F9066
:104FE0001F9018951F920F920FB60F9211242F93B6
:104FF0008F939F93EF93FF93E0919A03F0919B031C
:105000008081E091A003F091A10382FD1BC09081FB
:105010008091A3038F5F8F732091A403821741F0C7
:10502000E091A303F0E0E657FC4F958F8093A30334
:10503000FF91EF919F918F912F910F900FBE0F9045
:105040001F9018958081F4CF1F920F920FB60F9288
:1050500011242F933F934F935F936F937F938F937D
:105060009F93AF93BF93EF93FF938091B900887F95
:10507000803609F44AC0F0F5883209F4A7C018F563
:10508000803109F49BC0B8F4882309F4F9C0883052
:1050900009F494C0FF91EF91BF91AF919F918F91CF
:1050A0007F916F915F914F913F912F910F900FBE24
:1050B0000F901F901895883109F488C0803251F7FD
:1050C0008093280314C0803409F49DC040F48033D9
:1050D000B9F38833F9F68093280385ECB0C08035A6
:1050E00009F485C0883509F496C0883499F60E9481
:1050F0003E23D0CF883909F48CC038F5883729F0A1
:1051000050F4883611F0803729F683E08093290324
:105110001092270357C0883809F47BC0803919F0F2
:10512000803809F0B7CF80912703803208F071C032
:10513000E091270381E08E0F809327038091BB00CD
:10514000F0E0E95FFC4F80833DC0803B39F0E0F444
:10515000803A09F479C0883A09F09CCF84E08093C2
:1051600029031092040310920303E0910103F091CC
:10517000020309958091030381110FC081E08093A0
:1051800003031092E10209C0803C09F4A6CF883CD9
:1051900009F4A3CF883B09F07DCFE091040381E0BF
:1051A0008E0F80930403F0E0EF51FD4F80818093D8
:1051B000BB00909104038091030329C080914E03AA
:1051C0008093BB0085EC8093BC0064CF90914D032D
:1051D00080914C03981758F5E0914D0381E08E0FB4
:1051E00080934D03F0E0E45DFC4F8081E9CFE091D6
:1051F0004D0381E08E0F80934D038091BB00F0E062
:10520000E45DFC4F808390914D0380914C0398178F
:10521000C8F285E8D8CFE0914D0381E08E0F8093EE
:105220004D038091BB00F0E0E45DFC4F80838091F2
:105230002B0381115CCF81E080932A0384EA809361
:10524000BC001092290326CF85EC8093BC001092FD
:10525000290380912703803230F4E0912703F0E0A6
:10526000E95FFC4F10826091270370E0E091050335
:10527000F091060387E093E00995109227030ACF87
:105280001092280334CFCF9310928D0310928C0389
:1052900088EE93E0A0E0B0E080938E0390938F03BC
:1052A000A0939003B093910327E731E030938B03F1
:1052B00020938A0325EC30E03093970320939603E4
:1052C00024EC30E0309399032093980320EC30E0F5
:1052D00030939B0320939A0321EC30E030939D039D
:1052E00020939C0322EC30E030939F0320939E0395
:1052F00026EC30E03093A1032093A0031092A30387
:105300001092A4031092A5031092A60310922A04EF
:105310001092290480932B0490932C04A0932D04C5
:10532000B0932E0489E891E0909328048093270499
:1053300060E082E00E94080DE2E6F8E0E491E0938C
:10534000CD06EEE4F8E0E491F0E0EE0FFF1FEE5B37
:10535000F74F859194919093CF068093CE0610924B
:10536000D8061092DA061092D9061092D70610923B
:10537000D6061092D5061092D4061092D30610923B
:10538000D2061092D1061092D0061092CC0610923E
:10539000CB061092B7068DEC96E09093C0068093F2
:1053A000BF061092BD061092BE061092B60689E0A6
:1053B0008093B90681E08093BA068093BB06809300
:1053C000BC06109236061092350689EE9BE090934B
:1053D000B3068093B2061092B4061092B5061092EE
:1053E0004F068BE991E09093340680933306109238
:1053F00038061092370610924C061092430610920F
:10540000440610924506109246068FEF80934D0693
:1054100080935106E5E5F6E0CFEFC19386E0EB36E9
:10542000F807D9F782EB93E190933C0680933B0613
:1054300081EA94E190933E0680933D0686EA9BE1E3
:105440009093400680933F0686EF9EE0909342063D
:105450008093410630E020E040E069E087E396E099
:105460000E94B213109283061092820683EF9BE093
:1054700090936C0680936B0683E394E090937006A0
:1054800080936F0684E080937106109272061092EA
:105490008F061092AF0681E08093B0068093B1062C
:1054A00083EA91E090936E0680936D0687E396E021
:1054B0000E94581510927E0610928006C0937F06B7
:1054C000C0938106E0916D06F0916E060280F38133
:1054D000E02D87E396E0099586E59CE090938506AC
:1054E0008093840610929206C0936006C093610672
:1054F000C0936206CF910895CF93DF93CDB7DEB707
:10550000CB57D1090FB6F894DEBF0FBECDBF78944C
:1055100084B5826084BD84B5816084BD85B58260B8
:1055200085BD85B5816085BD80916E008160809369
:105530006E001092810080918100826080938100D2
:1055400080918100816080938100809180008160E2
:10555000809380008091B10084608093B10080913D
:10556000B00081608093B00080917A008460809365
:105570007A0080917A00826080937A0080917A002C
:10558000816080937A0080917A00806880937A00AD
:105590001092C100E0919A03F0919B0382E0808316
:1055A000E0919603F09197031082E0919803F091B7
:1055B00099038FEC80831092A203E0919E03F091F7
:1055C0009F0386E08083E0919C03F0919D0380819E
:1055D00080618083E0919C03F0919D0380818860CD
:1055E0008083E0919C03F0919D038081806880839B
:1055F000E0919C03F0919D0380818F7D808361E029
:105600008DE00E94080D61E086E00E94080D61E0D7
:1056100084E00E94080D60E085E10E94080D6BE7C0
:105620008AE893E00E947D0E89E392E00E94261EA4
:105630001FAE90E080E00E946B358F3F09F05AC0AA
:1056400081E090E00E946B358F3F09F053C082E00B
:1056500090E00E946B358F3F09F04CC080E090E0F5
:10566000A0EFB1E489839A83AB83BC83BE016F5FF3
:105670007F4F83E090E00E942F2480E090E0A0EA3A
:10568000B1E489839A83AB83BC83BE016F5F7F4F94
:1056900088E090E00E942F2401E010E01A83098343
:1056A000BE016F5F7F4F90E080E00E9408241A8364
:1056B0000983BE016F5F7F4F81E090E00E94082464
:1056C0001A830983BE016F5F7F4F82E090E00E94E2
:1056D0000824BE01615C7F4F8EE090E00E9462244E
:1056E00083E492E00E94261E60E971E080E090E091
:1056F0000E94690D64E773E083E090E00E94F4206B
:1057000060E773E088E090E00E94F4206AE773E0CD
:1057100090E080E00E94EA2069E773E081E090E099
:105720000E94EA2068E773E082E090E00E94EA20AD
:10573000BE01615C7F4F8EE090E00E94EA20E09124
:105740003B06F0913C0630E020E040E06AE087E371
:1057500096E009958091B106882321F087E396E0D1
:105760000E94762380E00E94580C87E396E00E9416
:10577000421B1091720680917106180FE091370656
:10578000F09138068189181708F487C087E396E0FE
:105790000E94291380E00E94580C60E087E396E0A5
:1057A0000E943213E091BF06F091C0061386158661
:1057B000148612861186108617821682158214822C
:1057C00013821092BD061092BE0611E0BE01655D07
:1057D0007F4F8091BF069091C0060E9430118823B0
:1057E00009F47FC067E0CE018B960E94EA0E9AA969
:1057F0008913ECCF8091BD068F5F8093BD068BA58A
:10580000883231F008F053C0803111F08232F1F665
:105810008091BE068F5F8093BE068091B60681118F
:1058200028C08091BF069091C0060E940710BE015B
:10583000655D7F4F8091BF069091C0060E94E80F82
:1058400040E064EB8091BF069091C0060E94B40FC7
:105850008091BF069091C0060E94610F082F809131
:10586000BF069091C0060E940710011102C010935C
:10587000B6068BA5803131F1BE016F5F7F4FCE013F
:105880008B960E94BE10882331F08D818F3329F1D1
:10589000A8F48F3121F180E018C08091B1068823EF
:1058A00021F087E396E00E947623812F5CCF8B3333
:1058B00009F4AECF823409F089CFAACF8F3521F019
:1058C0008F3749F78CE001C08BE09091B9069817AB
:1058D00008F07CCF8093B90679CF8AE0F6CF89E0D3
:1058E000F4CF87E396E00E94762383E290E10E9462
:1058F00076184EE452E06EE18AE00E943A1B0E9464
:105900009E1B8FAD8111D8C00E94742660E086E096
:105910000E94DA0C61E084E00E94DA0C60E08DE025
:105920000E94DA0C64E670E080E090E00E94690D6D
:1059300060917A038DE00E94DA0C64E670E080E00A
:1059400090E00E94690D60E08DE00E94DA0C64E650
:1059500070E080E090E00E94690D60917A038DE034
:105960000E94DA0C64E670E080E090E00E94690D2D
:1059700060E08DE00E94DA0C68EC70E080E090E07E
:105980000E94690D61E086E00E94DA0C60E084E02C
:105990000E94DA0C60917A038DE00E94DA0C60912B
:1059A0006F0387E396E00E94321387E396E00E943C
:1059B000762348E552E06EE18EE10E943A1B0E9498
:1059C0009E1B0E943F100E94B31160937B03709353
:1059D0007C0380937D0390937E0320E030E04CEFC6
:1059E00052EC0E944734181614F00E948B23409109
:1059F0007B0350917C0360917D0370917E03EFE403
:105A0000F3E08FE693E041935193619371938E1786
:105A10009F07C9F764E670E080E090E00E94690D9E
:105A200060E08DE00E94DA0C60E084E00E94DA0C15
:105A300060E086E00E94DA0C88E592E00E94261E73
:105A400064E670E080E090E00E94690D81E090E003
:105A50009A838983CE0101967C01BC018EE090E09F
:105A60000E9408240E94E71C20E030E040E750E458
:105A70000E944734181614F00E9474268AE893E0B6
:105A80000E943B0E181619060CF0ABC16BEA71E0D0
:105A9000CE018A589F4F0E94C7220E94ED0D97FDAC
:105AA00017C089831A8241E050E0B701CE018A58BD
:105AB0009F4F0E94BC21F1CF0E94E71C20E030E004
:105AC00040E750E40E94473418160CF01DCF1ECF5B
:105AD0006EE572E0C7010E94C72262E672E0CE0165
