:100000000C94EE1B0C94161C0C94161C0C94161CD1
:100010000C94161C0C94161C0C94161C0C94161C98
:100020000C94161C0C94161C0C94161C0C94161C88
:100030000C94161C0C94161C0C94161C0C94161C78
:100040000C9498310C94161C0C94161C0C94161CD1
:100050000C94161C0C94161C0C94161C0C94161C58
:100060000C94E2310C94161CDF0004040505040412
:100070000610100000100010000016033212664037
:1000800016D0A1C2A6B984A1040A6AD346A02081D1
:10009000A1844BA6014116CFA5C2A5B524414508B0
:1000A0006DD24484502141454BA50142126DE9C2F5
:1000B000620C51A0A2244BD2D02051210043136DD9
:1000C000E5C2650C51A120040B92A4D020519100EF
:1000D0004413D0A1C2F0817888B887E8C103F11039
:1000E0007102004515D0A1C2F081784818B187ECA3
:1000F000C103F190306204004613D0A1C2F08178B0
:10010000C818B187E4C103F190316247231022C2BD
:1001100065F458185383860829234484B98327CB70
:10012000922D32989A33444C0D2918461400480FEA
:10013000EA69C22450FE910A34A6C80902491F1078
:1001400022C26550152132858A142A618823C4454C
:100150000F922046A4509922A5149A024A201022F8
:10016000C26550550933458E903941682D61C2658D
:100170000DA12073A4C89912A6149A024B1F102235
:10018000C26550958932478A9C2181C86C616A1783
:10019000913843E4481913A5149A024C1F1022C247
:1001A0006550559132858A102341F06861441C994D
:1001B0002854A4501942A4149A024D124F25C31476
:1001C0005AF058A20F5E101E2D3C28004E124F21EF
:1001D000C31A5CF460120F9E921D2C3A10004F114E
:1001E0000A2EC2438CFE8D8A24878A0D0C0400508F
:1001F0001350E1C2155CF460170F1E8478427AB880
:100200005000511350E1C22A7C3491170F1E8470A4
:100210003C5A78280052110A2EC2147058A1232982
:10022000D410A37F0300530FEA29C2248E9419141B
:100230008A04CA3F02542670E1C212348CC821429B
:100240004588091486882021440409212248081180
:10025000414244081522544CD0200055260E22C29B
:100260002858A0108142040A9148881022921091C7
:100270008488244464244422211209112844B0446F
:10028000005614E871C242C6C4830722CC900745C9
:10029000884641820057271022C26550152132E35B
:1002A00088882B316C44B131A406111A45665889EF
:1002B0006123CA09213786102985A6005822D0A1BA
:1002C000C2209088402202890824228412219408A6
:1002D000A1440825422811428970E10F1E085925C2
:1002E0001022C2279AAC51212205891B34E6C10392
:1002F000218C1809212248081141428808124244E1
:100300001027005A1590A1C2E0C4895021428508E7
:10031000B5532142857802005B0E90A1C2E0C4274C
:100320000FFE60884F005C1F1022C2C28899208196
:1003300082040A1228489C3059091424508C8B07D7
:100340003F20E102005D171022C246D62442DC297C
:1003500053C5C6C58307E221242D0E005E21092E58
:10036000C2226E1829112342083932621A52844679
:100370008C204242C8101163480D1305005F201005
:1003800022C2C0A8519942F4A6D0AA36A4C810230C
:10039000428C083122C4489422F1A20D006014CA94
:1003A00069C21532A0B8C9905C826CDC38812143E7
:1003B0000161100E22C271485F8878F0078D05BB7D
:1003C00068620CE871C2F01F2429342C00631010FD
:1003D00022C2F08178480C317AF0FF410064151098
:1003E00022C26512A1208182043DF807E62179F03E
:1003F000030265160C2AC244CED4904132952122C4
:100400006442458A1CF9200166141022C2F00111D1
:100410008144043E7860987EFCE0010167170F2656
:10042000C21D7A28A5054D161638445CD12A4D56B2
:100430004A16006821EE61C23694A44143428C3CC6
:1004400008A20A8D112646282242C4088A212304C4
:1004500009110400691DCEA1C22C3288B821A28ADC
:10046000F089102462840C11232888187182040BEF
:10047000046A170E22C2F0294D1F3C1022091149AF
:100480003821220911491E3C6B190E22C2F083F556
:10049000A01F3C918488240F1E08118244C8830742
:1004A000046C1F1022C248D6A849340F1E0C2164C8
:1004B00064581A314888202182464CB2450F1E18D4
:1004C0006D0EEE64C3E0828D2A7426C90A036E1491
:1004D000C775C2164AD01822251E94305286D028DD
:1004E00061016F15C771C2104CD42032454C3C28B5
:1004F0005184CC2051C100700DEE24C32696A4393E
:10050000546A5838711490A1C260D4382B659A256A
:10051000440FA920818284007211B0E1C2A04C195D
:10052000614A7CB24A99EE010473178FA1C21C7A0A
:100530006C4923A18C8C3152C290328446090B0441
:1005400074142E25C3215004B144258A945185CEBC
:10055000245961007510C96DC2268C50993A2A55EC
:1005600057C44400760FC96DC2218C543D2A5347AD
:10057000C4840177142E25C32696A439546A8A941C
:1005800028948C84401100781C1022C26550151BE1
:10059000274A44A86183444CB2454D503871C34A40
:1005A000A1290079201022C26550151B2743888C91
:1005B000202326D92246CBD288213184C81037ACDB
:1005C000149A027A130E22C22658981023448C10D3
:1005D00025FAE0FFE0007B261022C265501521328B
:1005E000038708926290A052A2488922358898A079
:1005F000A223840A193886102985A6007C1490A1AC
:10060000C24714213A456C9ABC78F0C188272D0066
:100610007D1CF061C24714213A456C9A1C22614C42
:1006200089102542080A176C96B430007E1B1022F0
:10063000C24714213A456C9A2029716859C281A297
:10064000C99A442B5C18007F1C1022C2431461D14C
:10065000B264480D4123069D22364D5E3CF860C4CD
:10066000931600802490A1C22A5A9C2811624489C2
:1006700011224A8C0851A248492146941031A2C443
:100680008810254EB4500081211022C2279AE0081C
:100690001283B81A3488188962CA4A102334152381
:1006A0004623480C242D0E0082121022C2F007E4CB
:1006B000A1334B5A3C3C7EF0400083181022C220EC
:1006C000D4DE053126C4D41053438C093117C4A895
:1006D0009D1284181022C240D49E843322CCC82894
:1006E00023A38C083312CEA89D0A85121022C2F0D3
:1006F0008178782C9AAC79E81EFC80008622CEA105
:10070000C24188841124921091E441085642040A9F
:1007100011C5E2411049884882C404211200870EA5
:10072000F061C2F0FF07AC878B071000882C102205
:10073000C265501521320387080C2162D4904265AE
:100740000805114346482032858A8C1A2122A09040
:100750008163089152680A00891D1022C265509574
:10076000113287869C12816A995E8D3825E4D018F3
:1007700023A4149A028A151022C2F081784894A901
:1007800087D3070FC443C2C489008B1390A1C2F062
:100790008178481EFCC0881025421E3C508C2810D1
:1007A00022C2225C6808278EC40D12164290A8202F
:1007B0008204851124269024A104890826689C209F
:1007C000278E850B018D2A1022C265501521320318
:1007D0008708926290A0228284101923840C2942F7
:1007E00084CA90192148928163089152680A008E48
:1007F000131022C246985EAA436996B478983E7850
:1008000020008F131022C2F08178988A266B129DE7
:100810004AC2F40C00901A90A1C2C4A6092542C88D
:1008200048616C112312C68690918412318D189103
:100830001E90A1C26550152132038788091246C453
:100840001023459010412208214AB3C400921F0E84
:1008500022C260D0482823828C8C112284882425CF
:100860000C1A14C2E4C10385061F3C1093160A2A11
:10087000C22450140A66C40A1A33588C180B540246
:100880000501941570E1C260881FAD2A418CC8B87B
:10089000310205850C0500951370A1C215329040F8
:1008A00031E3861023516A113F32961790A1C2247A
:1008B00050083112E3C60814235090404186F89145
:1008C00001971890A1C260881F19122848A01881AA
:1008D00062C68D204644A02000981A0C2AC21556E4
:1008E00024395388D02851F16089923526049141EA
:1008F0006506009916F021C2279AAC4984E854B1E4
:1009000071F1203C240F7E40009A13CA6DC2248EE0
:10091000941914EA215581C6143941009B0F90A007
:10092000C34084081222488820A1009C1490A1C2D0
:10093000F08108476A02192224081993073F589D3D
:100940001D1022C227D8201142C4480C2D4C040986
:10095000112464CC1412848CC9831F2C9E1B0E227C
:10096000C2672C11213163C58E5CB34AB05045EA91
:1009700006131295CE04009F16D0A1C2E0C43D44D8
:10098000CAD443F8E08178486426443200A01210AB
:1009900022C2F08178E8CC92160F8F1FFC8000A154
:1009A000181022C220D49E843322CCC82823A38CC2
:1009B000083312CEA89D12A2181022C240D4DE0520
:1009C0003126C4D41053438C093117C4A89D0AA3FF
:1009D000121022C2F007E4E1B168B2E6A17BF04058
:1009E00000A41A1022C2406A19CA0BD10D21366820
:1009F000D43051E284CB98F0830704A51E90A1C2A5
:100A00004614DDA051C3C68C093482882024548C3E
:100A10001133D9A841E3901203A6221022C22686E0
:100A2000DC087399A91A526AD0A8516446991835FE
:100A3000A4D444C3888C4378D22800A7180E22C2BD
:100A400060D0482823828C8C3142C4480983061F19
:100A5000FC0707A8220E22C2145AF0D8A1052D09BE
:100A60007444C899118646985163629089314784CD
:100A7000A009720200A91B0F22C220C49410534285
:100A80003A51212489103442920833212CB5BC06F6
:100A9000AA16E871C23368D4A051AE46891A25E679
:100AA000841942A34401AB111022C260D4E8830729
:100AB000E22179F0FF4001AC1A0E22C24188841174
:100AC0009E982044469820618214252269D096245D
:100AD00001AD1A1022C270D268D9B246858C0C249E
:100AE0001E5682420E116AB6529307AE19CE65C2E7
:100AF0002028DC1081262B3477FC9CC192250D0A1E
:100B000019174800AF221022C2655015996A8C90BF
:100B1000122182980873E9D0A55B5782A090626386
:100B2000089152680A00B0161022C21E7CF00C8593
:100B30000CBC7088C0C1A4C5C3E00301B11CCEA128
:100B4000C220441222B2072D441222B2072D4412B1
:100B500022B2072D44122232B2211022C240840850
:100B60001222488820A11E124A901041420409F521
:100B7000905082840812224828B30F1022C2608845
:100B80001F99872343FCC800B4100E22C2F03F38DF
:100B90000FFAC103244C1E3CB51FCEA1C26084894C
:100BA000116182840912264898208D8409122648F2
:100BB000982061428C3031B618D0A1C24614DDA015
:100BC000615209142450904041028510C48704B733
:100BD00017B061C242888C11130F7E40C20D2B7575
:100BE00028CD92160700B819CEA5C22696A4313595
:100BF0002C5C30E10921228488102242880400B94B
:100C0000131022C2F001617A214C042A3E6AF3E0FB
:100C10000101BA101022C2F00786E9B1C1640F7E4B
:100C20009000BB181021C342888C1113438C14A26E
:100C3000511123238C9821440400BC190832C22589
:100C40008A1029A1648C48266A94A851C28408316C
:100C5000430200BD180E22C2A41D519225499624BC
:100C60004AB224C99244C929520400BE15D0A1C277
:100C7000F08178481E3C100FC98307E221E204008E
:100C8000BF16D0A1C2F08178481E3C100FC983075F
:100C9000E22161C40800C015D0A1C2F08178481ECD
:100CA0003C100FC98307E22163C400C11B1022C29C
:100CB0004914211171848411125664D4A2458C54B4
:100CC000A14B66D4A600C21B90A1C2C2889140412C
:100CD00002050914245090404102851862F4E00195
:100CE00002C31B1022C280104F0421118444101231
:100CF000E142840A1184441012E11262C4100A2AEB
:100D0000C2268C10FD47D60325460600C5291022B1
:100D1000C224889818334426212248B8E841C206E4
:100D20008D1A346AD03041A3850B124264123266A8
:100D30008411120400C6211022C24AD6A890E152A2
:100D400095196464D0A841A3060D3134A69470E1CE
:100D500043849A250A00C717D0A1C220C4097B4842
:100D60008438610F891027EC2111E28401C812D068
:100D7000A1C260C4534B6C0F91114F2DB10900C932
:100D800016CE65C22C9460B95388942C5267B2E891
:100D9000D8B1A28301CA10CCA9C244CED49041F2EA
:100DA000C9837F6000CB110C2AC244CED4904192FB
:100DB000CAC9837F6000CC1CD0A1C21C1E8018173A
:100DC0002F840A111A1EC2A042848A78E1463C8010
:100DD000C000CD1A90A1C22698EC687182C491110E
:100DE000C64C0C3941E2448F252C0C00CE1F10223A
:100DF000C2C28891404102854B24CC883822E484C9
:100E00001813245C42410205710200CF251022C252
:100E10006412DDA05102C50C1C2254885021428569
:100E200008153250904051834AB1325198B40800AD
:100E3000D01F1022C2F001616A48113144442222BD
:100E400012113144861421210811137EF08000D143
:100E50001BEC69C2440CCDA021C24408A4A10861C6
:100E600042068D4184CA1C495100D20A8CA9C24055
:100E700008FF4704D3148BA9C2107460B143491E04
:100E80003C0872A8D8C0A000D4138CA9C2440C8D11
:100E900012150F3E18A1440D324200D51E8FA5C277
:100EA000162E943041A386942961A4858B13468C19
:100EB0009429346A943061E102D61C8FA1C2102EAD
:100EC000985413952962C509174D4C9429326A909C
:100ED0003051E18201D7138EA1C240B2A031446AE1
:100EE0005674B34819429301D8148EA1C210D2206F
:100EF00032456B5AB458A30899C19204D9098CA9F8
:100F0000C2F0FF2001DA101022C28410470FFE0742
:100F10008810E20800DB12D021C2F08178387AF024
:100F2000403C1C3D782000DC190C2AC2259220454B
:100F300042E81B2984091934061949A1024D2101EF
:100F4000DD0890A0C3F00704DE131022C2F0016197
:100F5000FAF18307C4089354C50400DF190F22C2B5
:100F6000145AF0584A4D9A3C882EDD92104E18299A
:100F7000432A0C00E0198CE5C22592A4506161C49B
:100F8000847890228C9860424592140500E11D10EF
:100F900022C2796A1147C40409142450904041A226
:100FA0000A093251885724CC9205E2290E22C24800
:100FB000D2DC905183048D12336AC8A82123844C5B
:100FC000318D1011838494124242CCA84163861D56
:100FD0002C0600E313EF21C22B7A6A7182891A3C36
:100FE0007787268B9205E41E1022C22A9A9C98527B
:100FF00064081921648490915146C491163716D122
:10100000109F2903E5161022C246D6A84984B83499
:101010006A96A034854A3CF80101E60E0A2AC2F01D
:10102000E018FDB307419038E7211022C244B69280
:101030009044060E212349913141563162C306C5C1
:1010400098146292A543690800E810EE61C2A248B4
:1010500099415BB17026583E03E91B1022C26550CE
:10106000151B2725501871C46A2326284A2071C3EE
:101070004AA12900EA101022C246989E3DF801318B
:10108000C2F40C00EB200E22C22658CA20424209AC
:1010900091461663C414124494D28223048A1934EC
:1010A0000A9D2100EC161022C28410F7903D784072
:1010B00098122444900842882300ED17D0A1C22042
:1010C000981262448811A6888E2923428C0861C236
:1010D00002EE1C90E1C2161E40F0D193882421C874
:1010E000C48B2424088A112946A4186100EF191022
:1010F00022C2259A3069918CF842C483072E441489
:10110000294447450A01F0170A32C26206C5A062A7
:1011100002A513376C3A81E2410B140400F121104F
:1011200022C24714213A456C9ABC786068993151C3
:10113000C3848511229910C9844826442200F224D0
:101140000F22C21C5CC4B85446C68C10346248B02E
:10115000B28389961C2224D098112248A52B2C3AC0
:101160000800F31B1022C26550851042260692101B
:10117000880EB9CC870B1F4E6898425300F41D109F
:1011800022C279D46CA52687081C146E58A87181D8
:10119000060A1969B46C59A32701F514CA69C22457
:1011A0008E9419148A04CA48051A53E40401F61AE5
:1011B0004E25C3149D205183C61022F1A005213273
:1011C0008346091217281000F7291022C242D8744A
:1011D000F171838695194864E41041D28821234433
:1011E000D41021A3C4081121468810239298160D0B
:1011F00000F8231022C240F8643A95680D0D32536E
:10120000C6C8912248CA98215584841822488A2049
:1012100021828402F9221022C2A58A911044421030
:10122000094124049170E1CA94085122448910258F
:101230004294B8610300FA189021C31A1E80F0D1BD
:10124000045331E986D420718204860A0F00FB1C06
:10125000D0A1C260D458187126442D4A21268998FD
:10126000606184CB509040411C01FC221022C227B7
:10127000165909236594698642D4115147449D113A
:1012800064688CA921E54690344B0C00FD270E22A2
:10129000C22CA1108142040A11284490108984486C
:1012A0002444222142884842441222921091848888
:1012B000244464FE130C26C2255498A9534B569D12
:1012C0003226547E0500FF1D0F26C223849C107217
:1012D000A2253125C4946849D00841235A2842A345
:1012E00084850200000004FFFF01001E0F26C223B8
:1012F000048D1034A2253125C4946849C8092127DA
:101300005A2842A384850201011DD0A1C2F0011117
:101310008144043E7860442011810F1E1811484416
:10132000E0830704010218AE65C226585A522ED82F
:10133000A84267D0DC90618284450300010320103D
:1013400022C2275CA4404102059235894808122236
:101350004804A1344B50228122858B0301040F0ED7
:1013600022C2F029FDD30747983C2801051AEF61F6
:10137000C260F2E090718286092235C4D45E2943AE
:101380006894B0200001061E2F61C3406654994145
:1013900042C48C113266CC993167C698194466985C
:1013A00020210001072D1022C2655015213203872C
:1013B000882123628891229310112484882021445B
:1013C0002629626484183242068E21444AA12900EB
:1013D000010824CFA1C2B0480DD19223040E1123DD
:1013E000648C184382C884102546845011424508F5
:1013F00015E105000109151022C2F00111376EDA5E
:10140000B0194684D883FF8102010A141022C2F069
:10141000012142A34805234CFF14212200010B1C8B
:10142000CEA1C220048910244252084921248510EB
:101430004E54911D2C78B04400010C1BCEA1C22843
:1014400058EC58B1434909E1490A212984A4108282
:1014500044081200010D240E22C264D0604173C3FF
:10146000C2880B332C90A82184C6101244B4E00823
:101470008162068D42670800010E19D0A1C21C1EB0
:10148000809017AF85878730B8E8174FC403080CE2
:1014900000010F220E22C245D2140BF7100891480A
:1014A0008844422412229110898448244422211223
:1014B0006902000110230E22C24248102141840417
:1014C0001112444810214184041112444850915192
:1014D00008CB43F2A00101111AD0A1C240104F88DD
:1014E00020218284081222488820A11E92070F041E
:1014F000011219D0A1C24010132248A887E4C103E9
:10150000F1905082840842840401131AD0A1C2F0E1
:101510008178482841420409112444901041420432
:10152000210E090114125021C3C08813170F3E1059
:10153000F1C41123000115271022C2265CF410818A
:101540004488201A814A0492304A842811A2248CAB
:101550002A11884611213744A87081000116180C01
:101560002AC22654E44042380981449310881092DC
:101570001C2A11000117100832C226D5A0073F40CF
:10158000446A980401181E0E22C2269628C99206A3
:10159000CD0D19366414114244C8AC6152859107CF
:1015A0000F080119170F22C274AA053912E16153FD
:1015B000305DA8F0301D3C3300011A1A1022C229F8
:1015C00098F0605A0553964C55B2A29506111B240B
:1015D000B46800011B23EF61C21232CCB811A54AD6
:1015E000943152C290328406CFA55A63A484A112CA
:1015F000C48808140100011C1E0E22C2205484401D
:1016000031C244091226489C10410F9A0916F6A0CF
:1016100099609901011D281022C26412DDA05102B7
:10162000C58C1133449024428C4862442249C648F8
:101630002450D4A052AC4C14262D0200011E2610BA
:1016400022C26412DDA05102C50C1C225488102352
:1016500092189154C8404102450D2AC5CA4461D22E
:10166000220000005F00030304040304050B0B00C9
:10167000FE09FE09FE0181035804CF2005004C0A33
:10168000210992C48943248900220B45EC0A0945AB
:1016900092148900231397C4BB482C1432458291BD
:1016A00090292D128CC400240DA5BD9B0B4D281B29
:1016B000516E2100251298441C9929420915C9111F
:1016C000598412B2490026119844ACA14426114A0B
:1016D0004714494434593A270843EC094B28022857
:1016E0000BB334AA4828A2A7B400290DB3348A58F2
:1016F0002824D1251409012A0844EC1AC969002BB1
:101700000B87C4BB70B65B380D002C0742B489430D
:10171000002D0623D409032E0622C409022F0FB67A
:1017200034DB6034180D0AA3C168300A300E96C449
:101730002B592822E249128A8900310894C68B91DC
:101740007E21320D96C48B4A4CA8260B060F05331A
:101750000E96C48B4A4C280C4D87B30B00340F9760
:10176000C44BE12C220A490E47A99000350B95C5C0
:101770008B0331485BB200360F96C42B8A68581130
:10178000314942A20900370D95C58BC32C188BC96E
:10179000626A00381096C41B8A882491C4262226C7
:1017A000090500390F96C49B9128226292144712B2
:1017B00012003A0762C40922013B0882B409E2051B
:1017C000003C0A86C4DBA048352C4E3D0736D40BBE
:1017D000B3013E0C86C48BA858AA240B46013F0CCB
:1017E00095440B4A48264BD30900401299C53C62E8
:1017F000524426A22845745989834A00411199C44C
:10180000CC38603C2D8684A6A02828110E420E9666
:10181000C48B924497D04CA2CB0500430B9744ACA9
:101820008A6CAAB32C54441398C40C9B484D229341
:10183000C82432894C22929800450F96C40B8B28FD
:101840002294844892905074461096440B8B282220
:101850009484489290503603470E9844AC922C22C0
:10186000D66413A95500481399C40C0A45269289D9
:1018700064A2934C2413C9240C490994440A8A484D
:101880005F084A0CB5B41A924CBF442423004B1095
:1018900098440C52488B8C48AC49462A94014C0A17
:1018A00097440BA254DF0E014D159A448DE1642636
:1018B000DA2932114526A29044942499114E1698A3
:1018C000C48CD144161A854629925084141AC52412
:1018D0002309004F0E98C42C9A4822E45122929179
:1018E00000500D96C48B92442F24A11A0900511662
:1018F000B9B52CA2485122940825428950A44887A2
:10190000D0011100521197458C9A44241149443456
:101910009A4424390C530D96441B8A28221C12D752
:101920002E00540C98448C83481413EB95045515E1
:1019300098440CCA441692856421594816928564CD
:10194000311200561398448C9944169285463149B9
:1019500050129D8A650057189B448D918A481452F5
:101960000A494621CA7032140D65E1580C0058131B
:1019700098440C92441693C8A8D2884C328A4944A1
:1019800004591098448C9944161AC524C1B15612B2
:10199000005A0B96C48B9BDA4C36533B5B08B3342E
:1019A0008A8AFE325C0EB6348B70341C8D4A93A347
:1019B000E1005D08B3348A89FE525E0C86CCBBA080
:1019C000B650169930005F0615BC8A02600723FEE8
:1019D0000B5900610B66449BA9A4A29344006210BA
:1019E00097C48BA916914524114944920A006309B2
:1019F00065441BD34C3623641097C4BBA9524524BD
:101A000011494412936400650A65449B89E4209B54
:101A100011660D95C4AA89242222C9345100670B8E
:101A200086B49B8BA691E57401680F97C48BA916A9
:101A30005149229288249203690A94441A9174A409
:101A40000B016A0AB4342AD5914E13036B0E97C466
:101A50008BA9A6904444A34924076C0894448A9116
:101A60007E216D116AC48D494874084994244A1234
:101A700095C3006E0E67C48B89A82411494412C90E
:101A8000016F0A66C41B8A88938402701087B48B26
:101A900089C8229288242249494803710F87B49B40
:101AA0008A482292882426895448720B65C48A4940
:101AB000842253A200730B65449B8924422A590057
:101AC000740B94441A910A45A46900750E67C40BFF
:101AD00093442411494425C900760E67C48B914470
:101AE0001412C586D3180077126A448D5148229982
:101AF000842493D05124148900780E67C40B8A641F
:101B0000121BCE4212D100790F87B48B914414126C
:101B1000C586D37050087A0965450BCB4869627B4E
:101B20000CB3351A158A24241149147C07B1B589E0
:101B300003017D0DB3340A89924414915054007E00
:101B40000936D41B9144490200000004FFFF000045
:101B5000005EBCE2613FDD83C29C7E20A3FD1F418D
:101B6000009D23BE46DB65F88C11AF32CA57E9747D
:101B700000000000240027002A00000000002500CB
:101B800028002B00000000080002010000030407E9
:101B900000000000000000000000000023002600FC
:101BA00029000404040404040404020202020202E0
:101BB0000303030303030102040810204080010211
:101BC00004081020010204081020DF0003030404AD
:101BD0000303050808000008000800000E01B10911
:101BE000A9400E782C5E1D100C5D82A13820564154
:101BF0000E782C5E1D10895E52E380580142085514
:101C000036C6504D0143095535D644245303440E7E
:101C1000782CC6210EB2830E71900500450E782CEB
:101C2000C6210EB1C30E71880900460D782CC6215D
:101C30000EB3430E71980147118824DE2C329A119D
:101C4000C5923840328B8800480A85255630A7CA8D
:101C50002C04490F8824164D241999C843894846F5
:101C6000024A0F8824164D321195C5238A64460214
:101C70004B0F8824166D22218DC525C94446024C80
:101C80000F8824164D24118E49A6894846024D0C12
:101C9000583456587A88C80151004E0C58346E1C7E
:101CA000203944C521004F0A84268E48178A2C0209
:101CB000500A483456F870084501510A4834AEE4D9
:101CC00070088700520A84264E684211E902530ABE
:101CD0008525566C520AE604540E58344E3012963E
:101CE00084229250642855128724664A301291A4A7
:101CF0004832459222E11000560B742E8EE41011EA
:101D00008B240057118824162D2609D242A218319F
:101D1000228B91005811782C465012944454222A58
:101D2000119538E010591288249E581A0A1D22A6CF
:101D300088241491842C005A0C682CC6251A89AE6C
:101D4000462E005B0A682CC6E5E14172015C0F88F3
:101D5000248E2D140CC544A260E4F0305D0D88245F
:101D60009E94C86639C48132005E0E852556502285
:101D70008A8C26A2902C045F108824864DA4C92446
:101D800093C824B2830400600B652D563076880515
:101D90004300610A872406A9E9F0203E6208742EF8
:101DA000C6075200630B8824C6210E191DFE10645D
:101DB0000E88241631143A3CCC21878300650C86AA
:101DC00025962C941AA405A306660C8824C64112F5
:101DD0003C8C351F04670D88243E202A9D0AA58B64
:101DE0005300680B772C5E7474A9ACA82C690E772D
:101DF0002C764CE212A18462A120006A0F8724C6CF
:101E0000212A3D48522C929443006B0E8724C63BF6
:101E1000E0104939482287016C0F8824A6947290FB
:101E2000882A128AA474186D08363D868526026EAB
:101E300009632F56E41011056F0A632E4648728815
:101E4000840070073635968C62710D682CC61C6054
:101E500023D2A1A10800720A6834464D2CB9D41AC5
:101E6000730C682C7678129AD8A84200740C5834F7
:101E70004E30329AD8A832007509642E964449A68D
:101E800000760A85254E6CD3642D06770946359673
:101E90008C221A06780E882416CD5231D10E141BCE
:101EA0000900790E882416CDA2523255546C2400B4
:101EB0007A0B87245ECA447AF821007B0F882416A7
:101EC0002D1809AB85C491608C047C0B682CDEB0A6
:101ED00064391C24077D0E8824DEB064995522C223
:101EE000F038067E0E8824DEB064A1D884E1710C3F
:101EF000007F0E8824CE702A19962C8783E40080F8
:101F000010682C6E2C14490B896291A4581400811E
:101F10000E88249ED06419992626A30C00820B8873
:101F200024C6831C28C77C08830C882446745B6401
:101F30001699AE0A840C882486744B6C129BAE06EC
:101F4000850C8824C6218E590E3C1C048610772CE3
:101F5000C684927208454287480A65008709782C32
:101F6000C63FD8010188118824162D18094644BAA5
:101F70000423C1180900890E8824166D14A1758BDD
:101F80008C6224008A0E8824C6210EA9A31EE210AA
:101F90004B008B0D682CC6210E391C269143018CF9
:101FA0001288244EF4108A895242915048163A47BA
:101FB000008D118824162D18094B421191A6483026
:101FC00046028E0B88249E58952A473D048F0C8824
:101FD00024C6218E2AA58AD500900C682C9645A58A
:101FE0006492A8840C910E682C162D1809A95042F1
:101FF000541900920F8724C670128A4424C3C8C1A2
:102000007810930B852556C846A4994200940B5826
:1020100034C6C8A926098600950A582C5630222BAA
:10202000390D960C682C8E8C260986464E03970D2A
:10203000682CC6C869148CC8681200980C7625965E
:102040008C72B058261400990D78249E946639C479
:10205000218783009A0A642E8E840EA148009B0873
:10206000283C864442519C0D682CC621620989484F
:102070008743019D0F88249E5024094B282211E993
:1020800070289E0D87241E291AAD458B7100019F73
:102090000D782CC61D54071EE2906C00A00C8824FD
:1020A000C6210E94633E1C04A10C882446744B6C1C
:1020B000129BAE0AA20C882486745B641699AE0645
:1020C000A30B8824C6831CB31C7808A40E8824861E
:1020D0008CC8960E8803C20701A50E682C164D24E5
:1020E0009184289A642400A61188245E64488B8C0D
:1020F00062A1586414234E01A70C8724C670129A5B
:102100004886870FA80E87245658B81219554A9347
:102110000801A90F8724466414B150229418391974
:1021200000AA0C742E8E28448A45262200AB0B8808
:1021300024C6F410871C7E28AC0D8724C6C4651203
:102140000B55868B00AD098824C6741DEB06AE09BD
:10215000662DC66C79B600AF0F8824164D249111F8
:102160006946892C4602B00B782476E2301C473948
:1021700004B10F772C46243B20921D10C90E8864B1
:10218000B21088248644425187A850D4212A1405CD
:10219000B30B8824C6C8698E34721AB40A8724C661
:1021A000EF8043E510B50F772CC664120BC542A52E
:1021B00058281659B60E782C164D240A86821121FD
:1021C000A300B70D682C8E487238486C541900B8BB
:1021D0000B762D968C7238984802B90B8824C6412C
:1021E000AC4C733A08BA0B8824C6C35879783810B7
:1021F000BB0C48348E4812D214114900BC0A842604
:1022000096E22C148B0DBD0D8724566D28154A853A
:10221000B31200BE0E782CC6210E39C4218738C8EF
:1022200002BF0E782CC6210E39C4218738C404C0E1
:102230000E782CC6210E39C4218738CC00C10E88F7
:1022400024E6501413852C26DA740AC20E682C8EEC
:1022500029180A868291D18100C31088240691250D
:1022600044890322214A1C1024C40C8525966468E5
:102270009CCC212100C5158824564825140784626A
:10228000A158280E084544A21000C6118824AE1C8F
:102290001213A58562A1902C0E9102C70E782C46D0
:1022A000C40E89D821113B2462C80E782CC6E43AAA
:1022B000998326D7C90400C90B662DA6E820A24938
:1022C0004300CA0A762D962C94E5F030CB0B862578
:1022D000962C144D393C0CCC0E782C76E4208DC312
:1022E000A207491800CD0E682C9654168AD942319F
:1022F000A90800CE1188248E2918078462B6501CC4
:10230000100C5900CF108824D630168A46A2916846
:102310002826330BD0108824C6412C194992242337
:1023200051847C10D10D762D0E4534148E24341139
:1023300000D208662D86884F02D30A652D46707438
:10234000300501D40A662D0EE5F030A100D50E67E8
:102350002D562C22AA582622512C00D60E672C4628
:102360002CA432B19424B11000D70A672C86704691
:10237000712306D80B672C469066B1D08602D90728
:10238000662DC61F02DA0C8824169174F84022923A
:1023900000DB0C7824C6218E7488231D02DC0E8697
:1023A00025965014D1329210631400DD07283CC6E4
:1023B0008300DE0C8824C641ACF920135A00DF0BE1
:1023C00077248E709176B18900E00A772C5E38ED23
:1023D000164E03E10D88245EC9140C054321AF009D
:1023E000E2118724A63094168945324564A2D80CA0
:1023F00000E30B7724761C269C2D4A01E40F8824E9
:102400006E30249A8826C1A02CF206E50D88249E01
:1024100094C82A8C490E0701E6098525864DB70325
:1024200001E70F88249658128DA8994A34E20800D3
:10243000E80B772C4E6D38BA85D300E90D88241649
:10244000CD3239B9506C2400EA0C88249E58ED70C6
:102450009089D500EB1087245E3818C914924A235E
:10246000B1D80800EC0E882416910E3B88259410F4
:102470009104ED0E782C465822138B94651271004E
:10248000EE0C58345E584C9A50243100EF0D8824DD
:10249000965868321D0E244D00F00E8526CE241667
:1024A0008CC56471500800F10F8824DEB06439CC0B
:1024B0006629D9224900F210882476443691A489ED
:1024C000A59214D93802F3108824162D38A403E2FB
:1024D0008038240E2101F40B8824EEC65828385D7C
:1024E00005F50D8525566C520A862AB31000F60EA6
:1024F0005834569A4872888864A11000F7138824CB
:10250000CE1C2014452521494424894C52C600F88C
:102510000F8824C6B44A124D283209494251F91194
:1025200088249629428A90E2804AA412A95C00FA83
:102530000D68346E1C20B35864A13800FB0F782C52
:10254000C63456A2C4017140306402FC1088249E37
:102550006C52AB5142A3D02C229501FD13872476F7
:1025600030128C842249918824459222C900FE0BA6
:1025700085255668541A053301FF0F87254E4416EA
:102580008E8CC2114A741A0500000004FFFF01007E
:102590001087254E84128E8CC21159741A050101C0
:1025A0000F782CC641123C4C828749F02001020B67
:1025B000562D96C84222A50001030D662D463024F3
:1025C00023D144C10001040B8724C621AAEBE110EA
:1025D00001050E772CC630140BC9DA8812000106EB
:1025E0000D473C862825141A8544010107158824C7
:1025F000162D1809A98422925044248A04632400C9
:1026000001080F772C46292A8C844451E9210001C6
:10261000090E8824C64172885864870F05010A0D87
:102620008824C641248A89752501010B0F772C4621
:102630008412A1442C35A93804010C0D772C665462
:1026400029E242895000010D118724D670168D456C
:1026500044216924161B01010E0F782C76E4108E9C
:10266000C3C287481800010F118724D6E80EC91489
:10267000498A2445922A0001101187248E28240AB1
:102680008942A2902836071D01110F782C869045AB
:10269000429150D421870001120F782C8690A20E0F
:1026A00039C4212A4401011310782CC6210E51A1EE
:1026B00048281222510001140C583486C97238443B
:1026C0004E0001151188245E58222159229548494F
:1026D00045180401160C86255E50C4D2280D010150
:1026E000170B84265EE87020C90201180F87245E4C
:1026F000743893C424A2CAE43001190D87244E25EE
:102700001A07CD519500011A0D88246658B9541A3C
:102710004EC500011B1188244E30329AD88834CB24
:1027200068128C00011C1087244634124B09DD62AC
:10273000B7700C00011D108824D63016CA129924D7
:1027400065939905011E118824D630168A46229376
:10275000D4504C66160000BF0003030304030504B5
:10276000060D00FE09FE0900017D02D808B820050B
:1027700000EE0721074AC3C7A14422089DDA8784D7
:1027800045002310CDC24F52247298A41C264991B3
:102790000800240F4EC2978C12D14693A844682299
:1027A00000250F4EC2C74812A904658A914A4434D5
:1027B000260F4EC2CF48A2A7912432A9882601270E
:1027C0000722D7C72100280CCCC297442411A9891D
:1027D0006402290DCCC2874C2413A9882422002A24
:1027E0000D36C64F28263A9464A108002B0B36C636
:1027F000975074280945002C08A4BECF8A12002DDA
:10280000060ECE87012E089CBE8F8422012F0C4E0F
:10281000C2A79A50A628130A01300E4EC2972C1454
:1028200011F12409C54400310B4EC2976C1411EA12
:10283000C900320E4EC20F4544128A4632A1D00062
:10284000330D4EC28751A6461592241400340D4E06
:10285000C2A76C4491904887A002350E4EC2C72192
:1028600028AC888442928402360E4EC20F4544142E
:1028700056444C120A00370D4EC287514D2813CAD8
:10288000843200380E4EC20F45C424A18898241407
:1028900000390E4EC20F45C424290A49120A003AD3
:1028A0000CC4BE8F842287492812003B0BC4BE8F04
:1028B00084229E4C94003C084EC2A74C571D3D07F5
:1028C00026CA871D6A3E094EC28754371D013F0E36
:1028D0004EC20F4544128A6672985004400F4EC291
:1028E0000F25B652894CAA31090500410B4EC20F83
:1028F00045C474187112420C4EC24745C47411315C
:102900005D00430B4EC20F4544D4938402440A4EEB
:10291000C24745C44F1700450B4EC2C721A85811E6
:102920002A1A460B4EC2C721A858116A04470C4EFA
:10293000C20F4544542931490A480B4EC28788D3F7
:1029400061C4490049094EC28749A84F064A0A4E48
:10295000C2A73E922414004B0F4EC2876C44919044
:10296000662489122D004C084EC287503F1A4D0B29
:102970004EC2477074388878124E0D4EC287885404
:10298000A91C264D24014F0B4EC20F45C44F120AFD
:1029900000500B4EC24745C474116A04510C56BE18
:1029A0000F45C4538532A10A520D4EC24745C47427
:1029B0002149946801530E4EC20F45449452852418
:1029C00009050054094EC28749A89F00550A4EC206
:1029D00087883F492800560D4EC287884912CA444D
:1029E000132A01570B4EC28788A7C341340C580FD6
:1029F0004EC247702409856832528A6818590C4EB5
:102A0000C287882421D1843A015A0A4EC287514D87
:102A100047A1015B08CCC287499F085C0C4EC28766
:102A2000502A942A4A85025D08CCC207499F0C5E51
:102A30000926D6978C221A065F0716BEC7A100602A
:102A4000079CDE874C01610A36C20F557222490A83
:102A5000620B4EC28750B122E27401630B36C20F83
:102A6000454454925000640A4EC2A7961327490168
:102A7000650C36C20F4574188A241400660C4EC2C9
:102A8000D748A228A309B501670E46BACF1249421A
:102A9000915244120A00680B4EC28750B122E2499B
:102AA00000690A4EC297500E1AEA646A0C5EBAA711
:102AB0003A4CA8234942016B0D4EC2875013454240
:102AC000224994046C084EC2CF503F196D0A36C299
:102AD0008744723831096E0936C24745C493006F86
:102AE0000A36C20F45C4494201700B46BA4745C475
:102AF00074112A02710A46BACF894952D400720968
:102B000036C2474544D408730D36C20F4524114BD5
:102B100044120A00740C46C28F5056126A114D00BE
:102B2000750936C28788274901760B36C2878849DE
:102B300042A28900770B36C28788E9700945007880
:102B40000C36C28788242151442401790C46BA8767
:102B50008893A4489250007A0A36C2875126920977
:102B60000D7B0CCCC24F4926914944B2017C074AE7
:102B7000C3C703017D0DCCC2C74C24914964A20A8E
:102B8000007E091EDA8FE8109200A00500EE07A172
:102B90000752C307E970A20F46C65FEC129984245E
:102BA00021494A2D04A30D4EC2D748A2282B09550E
:102BB0005600A40C36C687E8100965398404A50EB2
:102BC0004EC287882421514C22935004A60852C338
:102BD000C7217808A70F56C20F4544A58848122A76
:102BE000494201A80795E2878422A91056C20F45E1
:102BF000349448482489E2484201AA09BDCA07F131
:102C000010BA16AB113EC6972422894842919824E7
:102C100026894902AC0726C6875103AD068CCE072C
:102C200001AE1156C20F4534945422938A4A84242B
:102C3000A100AF068DE64701B00A26D60F454492A3
:102C40005000B10B3EC697506412CA2106B20A3436
:102C5000D2C72422922811B30A34D2C724A236A99B
:102C600000B4089CDE97440900B50A3EBE8788A7D9
:102C7000831400B6104EC2CFE11069894C42929085
:102C8000242409B70612D30701B80793BA0F050029
:102C9000B90934D28F64A48500BA09BDCECFC46609
:102CA0001917BB123EC64744169145649150441211
:102CB00091444400BC0D56C28F6CA8E936928488BA
:102CC00002BD0D56C28F6CA8489908658A04BE11D2
:102CD00056C2C72C22938A22128A6C24091105BF7E
:102CE0000F56C297500E13CA144524090500C00E92
:102CF00056C28F540E935144A4C38824C10E56C2A9
:102D00009F3A4C4611910E239200C20F56C2D748EB
:102D10002287C82822D2614412C30F56C297244585
:102D20000E925144A4C38824C40F56C287882487B6
:102D3000C82822D2614412C50F56C20F298926A382
:102D4000884887114900C60C4EC2CF61A297434400
:102D50002F03C70C5EBA0F4544D49384A606C80E51
:102D600056C28F540E39048524A1D000C90D56C215
:102D70009F3AE4101492844203CA0E56C2D74822E6
:102D80003E048524A1D000CB0E56C28788243E0481
:102D90008524A1D000CC0B56C28F540E3109753258
:102DA000CD0B56C29F3AC424D4C900CE0B56C2D70D
:102DB000482236097532CF0B56C2878824360975EA
:102DC00032D00C4EC24749A24B455F2E00D10F5660
:102DD000C29724450E10912A87498924D20D56C2E4
:102DE0008F540EA28878925000D30C56C29F3A8816
:102DF00022E2494201D40E56C2D748220750443C31
:102E0000492800D50E56C29724450EA188789250C5
:102E100000D60E56C28788240750443C492800D764
:102E20000B2EC687484293514402D80E56BE6F847B
:102E30002269B1B448285100D90C56C28F540E11E2
:102E4000F1494201DA0C56C29F3A44C427090500F1
:102E5000DB0C56C2D7482216F1494201DC0C56C29F
:102E600087882416F1494201DD0E56C29F3A442458
:102E7000098568424D00DE0C4EC287B02262BA0856
:102E80001501DF0C4EC20F45C4A213170900E00D57
:102E90004EC297540EA14A4E944901E10C4EC29F76
:102EA0003A882A39512605E20E4EC2D748220750E9
:102EB0002527CAA400E30E4EC29724450EA14A4E10
:102EC000944901E40C4EC28FEE00AAE4449914E543
:102ED0000E56C2D72C129B43A892136552E60E36AB
:102EE000C20F4D12B1882292882402E70C46BA0F15
:102EF00045445492D0D400E80E4EC297540EA18897
:102F00000E43918402E90E4EC29F3A88223A0C4544
:102F1000120A00EA0F4EC2D7482207504487A14840
:102F20004201EB0E4EC28FEE008AE83014492800B1
:102F3000EC0ACCC2874C3AD28500ED0ACCC2974449
:102F40003AD28500EE0A4DC2CF4479A61301EF0BA9
:102F5000CDC28784229DE94401F00E56C28F2426FB
:102F6000A34A4E9C241400F10D4EC29724450EA88E
:102F70004C489C04F20D4EC28F540EA2883849284A
:102F800000F30C4EC29F3A8822E224A100F40E4EB8
:102F9000C2D748220750449C241400F50E4EC29715
:102FA00024450EA18838492800F60C4EC28FEE0049
:102FB0008A88938402F70C3EC697500EB143842250
:102FC00000F80E4EBE6F8422A2942A2409250AF925
:102FD0000B4EC28F540E11F13229FA0B4EC29F3A9A
:102FE00044C4CBA400FB0B4EC2D7482216F13229B1
:102FF000FC0A4EC28FCE225E2605FD0E5EBA9F3AB7
:1030000044C4655224492800FE0F56BA8750453201
:1030100021912A14452100FF0D5EBA8FCE222E1376
:103020004592840200000004FFFF000060000403DA
:103030000505040606121B00FB12FB1200028305A5
:1030400006079120060020C8022109422A78C20FF3
:103050004408220A66ECCB824548160023284A26FB
:10306000C8CEC4CCC4CCC48C88CC88CCC4C4C181E8
:1030700089C88C88C8C181C59A891991191199117B
:1030800099891900241DEAA6C792A0329B838899CA
:1030900089A1C20DE90807058D6C460E62CC0415A6
:1030A00001251E4926C8C6CCC9C589D8989CD89880
:1030B000D8989CD89888C804C5844484C8CD002674
:1030C000206926C80E91C90A990939B9B131A222DD
:1030D000891989091209929B138A918983180327F8
:1030E0000A63E87BC24448040028164532D88ACCDB
:1030F000C4888CC812196D46666446664624002949
:10310000134432C88288C888C8887EB14262422689
:1031100004002A120869DB8E98C8818489C5418C15
:10312000488C0C002B0DE728B98E9492831B291133
:10313000002C0862E8770245002D0747A8B9C203B2
:103140002E0742287802012F14482AC89AAA29A9D2
:103150005552ABA4A6A45649AD120330144926C853
:103160000ECD05C51115FF5591C4C8C41109003114
:103170000B452EC88E92031BFD3F32184926C80E00
:10318000CD05C5115511D1D4D8D4B2A96553630763
:103190000704331669E6C7C203B255636253546528
:1031A000747A21734072150434194926C8CE989C4C
:1031B000D8989CD832391191113522070754729A48
:1031C0000035174926C8C2033BED4E0E2266AAE41D
:1031D000D45115994C1C910036194926C80ECD05BD
:1031E00089119DBA93838819232A564526134724AB
:1031F0000037174A26C8C20751124213427373722E
:10320000EBE4B693DB4E0A00381D4926C80ECD0507
:103210008911155591C4C8C4C9C58C11155591C4DF
:10322000C8C4110900391B4926C80ECD05891115DE
:10323000AB22938983903B39AA228991892312007A
:103240003A0842A9780231013B09626978023145A6
:10325000003C0E66EDC892CCC81221A1ADA4023D7F
:103260000CC8E8C8C20379888303013E1166EDC823
:103270004294D4D02299899119A128003F16692639
:10328000C80ECDC9C411959CD814D53239DD83CA76
:10329000C9004034D1E63697E5C198850D1DC9E4D3
:1032A000C48C89C9498DC80C8D1A1A35346A68D402
:1032B000D0A8A151433341617240314341330F30B3
:1032C0006E7D40782002411E4A26C892E018CF8ABF
:1032D0008C26844484448444460E420E42844484B2
:1032E00044848C06421B4926C882CD4184CC84503C
:1032F00015A3038A139909A12A8E6A0E2A6C00432A
:10330000144926C84ACD05C511159DFEAAC864E218
:1033100088040044114926C8C2C941848C15FF8F16
:103320000E284E0045114A26C8C207817A787323B9
:10333000A887070706460F4A26C8C207817A78730E
:1033400023A81F0247144926C84ACD0589119D6E3E
:103350005C71556441711063480E4926C882147F20
:1033600075F0208ABF124908422A78C21F044A0F0A
:103370004926C89EFEEFA88A4C268E48004B20495D
:1033800026C882509B09911191118999A2222AAADB
:10339000A2228919911191119909A1A2014C0C4AFB
:1033A00026C882A0FE7F7870604D1C4926C8C25096
:1033B0008DCDC9C541C4C18389098A0912099210FA
:1033C00092102A5E094E174926C8C250231B9B93B0
:1033D000130A118A09120992378EBA124F1349261D
:1033E000C80ECD05C51115FF5591C9C4110900506E
:1033F000144926C882CD41848C5115470714277281
:10340000FA1D0051134926C80ECD05C51115FF55EB
:1034100091C9C4418C01521D4926C882CD41848C7A
:103420005115470714272223322232133213421236
:1034300042AD0453174926C84ACD05891155D91CF8
:1034400019DD7654452613472400540D4926B8C289
:10345000032239FDFF0600550F4926C88214FF5F7D
:1034600015994C1C9100561E4A26C8C2D084D0849F
:10347000908890C88CC81A9119112111A109A956D8
:1034800064ECB60157264A26C8C290A3092111212F
:1034900011211121110925124A24941C841C841C19
:1034A000841C841C841C84EC020058204A26C88694
:1034B000D08490C88CC81A11A109212B32AE8C2659
:1034C00084446446D68808490C0D591D4A26C8C252
:1034D000D0849088CCC888908890C4505519D9DC85
:1034E0009CDC3AB97572005A184926B8C203B23149
:1034F000B131B131B1556363626362630707045B45
:103500000B462EC8C223FD3F3A285C17492AC882C1
:10351000DC9CBA39B9B139B9B139B939B9B139B9AC
:10352000015D0C452EC8C2C18CFEDF1C145E0A660C
:10353000ECCC06C54188005F084CA0C7C2070360F9
:103540000A84B0CC828C888C00611DCB25D80E9962
:10355000D1C88C908C90A4D0CD41088D889488944B
:1035600008938391120162176926C8829C5E901CA1
:1035700044501C51F15591C541850409006313C99C
:1035800025C80ECD058911159DAE8A2C288E4800C0
:1035900064156926C89EDE581C448C1851F155915B
:1035A00005C5418C016516C925C80ECDC9C41115C4
:1035B000D5C18338B9A1081647240066156926C805
:1035C00012918D8D888C9C460711074172FA230059
:1035D000671F69E6C68EC541C4C411155591C40460
:1035E000C5898DDCD8C5411155CDC4418805006819
:1035F000116926C8829C5E901C44901851F15F09A5
:10360000690D642A788288B888FE9325026A1107BA
:10361000EFD6967A5829FDBFA2A99830A1006B1A5F
:103620006926C8829C1EB59990111119512331E366
:10363000E66444648550D1006C0C652678828CFE6B
:103640007F3343326D24D0253883040DC9C1410432
:103650008589D11095149514951495149514951485
:1036600095149514951495026E10C925C88204C945
:103670004104891115FF95006F12C925C80ECDC9E7
:103680008811155F1559501C9100701869E6C682A3
:1036900004C941048911155F15991C504890C8E967
:1036A0000E00711669E6C68EC541C48811155F15F6
:1036B000498C4C1CC4D8E901720FC7259882C4C13B
:1036C00041440995FE15007315C825B80A8DC588B3
:1036D0000D515951591191C5840D09007410662678
:1036E0008886906E0E2A84F4474334037510C925EA
:1036F000C88214FF5591C4C8C4418C01761ECA25E6
:10370000C8C2D084D084908890C88CC81A911911EE
:103710002111A10921AB2A321A00772ED12538C3F5
:10372000D00AA115424322423422233522232533D5
:10373000221222332212224222121342161342264E
:1037400055345534643434007819C929C8825091ED
:1037500088C888A222B2555435223222134212421E
:1037600003791F6AE6C6C6CC88CC888C361333131F
:1037700043124312521252CDC8E6369298B1A202B9
:103780007A11CA25C8C203BBB17563DB8DAD3B3866
:10379000307B14A7AEC7D20C09CD90946E68A456A6
:1037A000E9D514D1007C08E2B6C7C23F207D13A73B
:1037B000AEC782D42ABDDA8664484A473334430010
:1037C0007E0C6A64C94690C881C881007F060020CB
:1037D000C80200000004FFFF0000013311241FBED7
:1037E000CFEFD8E0DEBFCDBF11E0A0E0B1E0EEE268
:1037F000FAE702C005900D92AA3BB107D9F725E080
:10380000AAEBB1E001C01D92A738B207E1F71BE1B6
:10381000CEEEDBE104C02197FE010E941A3ACD3EB4
:10382000D107C9F70E94FC330C94153D0C9400009D
:10383000662329F06A3019F0862F90E008958FEF03
:103840009FEF0895CF92DF92EF92FF920F931F9315
:10385000CF93DF93EC01842F8770E1E0F0E0082E36
:1038600001C0EE0F0A94EAF73E2F7E0199E7E90EB8
:10387000F11CD7019C9110E0923018F41E2F91306A
:1038800029F150E0487FE8ADF9ADC880D980D60174
:1038900050969C91949F6001959FD00C11246C0DC3
:1038A0007D2D711DDF01A60FB71F011115C08C9171
:1038B000812B83278D932150D1F7DF91CF911F91D9
:1038C0000F91FF90EF90DF90CF90089530E0D9CF27
:1038D000110F330F222389F39C91912B93279C93F3
:1038E0008F5F877021508111F3CF9CADA90FB11D5F
:1038F000F7019081923028F4913009F031E011E025
:10390000E9CF31E0E7CF80E0089580E00895CF93DC
:10391000DF93CFEDD4E08FAFEAADFBAD0190F08146
:10392000E02D83EE94E00995EAADFBAD0280F381D2
:10393000E02D83EE94E0DF91CF91099480E48093B1
:103940007C0080917A00806480937A0080917A0074
:1039500086FDFCCF809178009091790008959B01BD
:10396000DC011896ED91FC9141E067E10994833008
:1039700081F028F4813099F08230A9F008958730E1
:10398000A9F08830C9F08430B1F4809180008F7D37
:1039900003C0809180008F7780938000089584B564
:1039A0008F7784BD089584B58F7DFBCF8091B00063
:1039B0008F778093B00008958091B0008F7DF9CF0C
:1039C000CF93DF93282F30E0F901EC57F44E849128
:1039D000F901EA54F44ED491F901EE55F44EC49134
:1039E000CC23A1F081110E94B71CEC2FF0E0EE0F68
:1039F000FF1FE856F44EA591B491EC91ED2381E0C0
:103A000090E009F480E0DF91CF91089580E090E0AC
:103A1000FACF1F93CF93DF93282F30E0F901EC57B3
:103A2000F44E8491F901EA54F44ED491F901EE5523
:103A3000F44EC491CC23A9F0162F81110E94B71C1B
:103A4000EC2FF0E0EE0FFF1FE658F44EA591B49175
:103A50008FB7F894EC91111108C0D095DE23DC9358
:103A60008FBFDF91CF911F910895DE2BF8CFCF93B9
:103A7000DF9390E0FC01EA54F44E24918E55944E6D
:103A8000FC0184918823C9F090E0880F991FFC0104
:103A9000E059F44EA591B491FC01E658F44EC5915D
:103AA000D49161110DC09FB7F8948C912095822319
:103AB0008C938881282328839FBFDF91CF9108951D
:103AC000623051F49FB7F8943C91822F8095832304
:103AD0008C93E8812E2BEFCF8FB7F894EC912E2B9F
:103AE0002C938FBFEACF3FB7F89480919A029091C0
:103AF0009B02A0919C02B0919D0226B5A89B05C097
:103B00002F3F19F00196A11DB11D3FBFBA2FA92F5C
:103B1000982F8827BC01CD01620F711D811D911D59
:103B200042E0660F771F881F991F4A95D1F70895C5
:103B30008F929F92AF92BF92CF92DF92EF92FF92BD
:103B40006B017C010E94731D4B015C01C114D10407
:103B5000E104F104B9F00E94731D681979098A091A
:103B60009B09683E73408105910580F321E0C21AEC
:103B7000D108E108F10888EE880E83E0981EA11CA8
:103B8000B11CE4CFFF90EF90DF90CF90BF90AF904B
:103B90009F908F900895DC0180E0615090F09D919E
:103BA0009827E92FEF70F0E0E05BF44E2491E92FC5
:103BB000E295EF70F0E0E05AF44EE491822F8E2708
:103BC000ECCF0895DC012C911196ED91FC91F894C5
:103BD0008181822B81839281322F3095932392832E
:103BE00087E090E00197F1F781818323818383E26D
:103BF00090E00197F1F790817894EFECF0E0319745
:103C0000F1F7922381E009F480E00895FC019081AE
:103C10000180F281E02D292F209560FF14C0F894D7
:103C20008281822382838181892B8183A3E2B0E018
:103C30001197F1F78281982B9283789487ED90E029
:103C40000197F1F70895F89482818223828381811C
:103C5000892B8183AFEFB0E01197F1F78281982B28
:103C6000928378948FE090E0EBCFDF92EF92FF9217
:103C70000F931F93CF93DF93EC01D62EE42E08E031
:103C800010E0FF24F39461E08D2D8F2109F460E0B2
:103C9000CE010E94061EFF0C01501109A1F7E11090
:103CA00010C0F894E981FA819181888180958923F7
:103CB0008183E981FA819281888180958923828339
:103CC0007894DF91CF911F910F91FF90EF90DF904B
:103CD0000895EF92FF920F931F93CF93DF938C0180
:103CE0007B0140E065E50E94351EE70188E0E80EB3
:103CF000F11C699140E0C8010E94351ECE15DF0518
:103D0000C1F7DF91CF911F910F91FF90EF90089530
:103D1000FC0190810180F281E02DF8948181292FAE
:103D200020958223818378943DE743E050E0315031
:103D300029F1DA011197F1F780818923C1F3F89411
:103D40008281822382838181892B81837894ABE76E
:103D5000B7E01197F1F7F894818182238183A3E181
:103D6000B1E01197F1F78081982381E009F080E0BC
:103D70007894E3E6F6E03197F1F7089580E008954E
:103D80006F927F928F929F92AF92BF92CF92DF926B
:103D9000EF92FF920F931F93CF93DF938C01EB0170
:103DA00080916B0590916C050E94881E882309F410
:103DB0003FC0B80180916B0590916C050E94691E0F
:103DC00040E06EEB80916B0590916C050E94351E72
:103DD0007E016E0189E0C80ED11C8E01A0906B059A
:103DE000B0906C0588E0882E912C712C6624639429
:103DF000C5010E94E21D81117628660CE1E08E1A51
:103E00009108B1F7F80171928F01CE16DF0631F7F4
:103E100080916B0590916C050E94881E813041F461
:103E2000F70181917F01811105C0E017F107C1F70A
:103E300090E008C068E0CE010E94CB1D91E028858B
:103E40002813F6CF892FDF91CF911F910F91FF900B
:103E5000EF90DF90CF90BF90AF909F908F907F902A
:103E60006F900895CF92DF92EF92FF9280916B0551
:103E700090916C050E94881E40E06CEC80916B056F
:103E800090916C050E94351E4091620564E480911A
:103E90006B0590916C050E94351E80916605882304
:103EA00089F1E091650580916705882381F1809112
:103EB000620581112CC08FB7F894C090CF02D090CA
:103EC000D002E090D102F090D2028FBF80916B05BA
:103ED00090916C050E94E21D8130A1F02FB7F894FB
:103EE0008091CF029091D002A091D102B091D202E4
:103EF0002FBF8C199D09AE09BF098E3E9240A105C6
:103F0000B10520F3FF90EF90DF90CF900895E95036
:103F10008EEE92E0E33038F4F0E0EE0FFF1FEA5946
:103F2000FE4F808191816C01990FEE08FF0880910E
:103F30006305882329F060E0809164050E94091DD3
:103F4000C701B6010E94981D809163058823D1F2B4
:103F500061E080916405FF90EF90DF90CF900C942A
:103F6000091D20914D02260F3327331F21323105C1
:103F7000ECF420917302FC0190E080E0243069F0C1
:103F800082E00895A0914D022191AC01455D5D4F05
:103F9000A40FB52FB11D2C930196861798F380912D
:103FA0004D02680F60934D0280E0089581E008950E
:103FB0001092730281E0809375021092740261E0A6
:103FC00082E10E94091D61E083E10E94091DE9EB85
:103FD000F0E080818E7F808380818D7F808388E484
:103FE0008093B80085E48093BC000895CF93DF935D
:103FF00091E090932A028823B9F0C091B800D09143
:10400000BA008091BC008A7B8093BC0060E082E1B2
:104010000E94091D60E083E10E94091D0E94D81FD3
:10402000D093BA00C093B800DF91CF91089508955E
:1040300008950895E091220280912102E81730F45A
:10404000F0E0EF5FFD4F808190E008958FEF9FEFEC
:10405000089590912202809121022FEF3FEF98174F
:1040600048F4E92FF0E0EF5FFD4F208130E09F5FE3
:1040700090932202C9010895809121029091220219
:10408000891B990B0895CF92DF92EF92FF920F93C5
:104090001F93CF93DF937C01CB018A012091000213
:1040A000222389F0EB016B01C40ED51ECC15DD0572
:1040B00069F06991D701ED91FC910190F081E02DBB
:1040C000C7010995F3CF642F0E94B11FC801DF918A
:1040D000CF911F910F91FF90EF90DF90CF900895B7
:1040E000CF93DF931F92CDB7DEB769832091000293
:1040F0002223F9F020912302203258F021E030E011
:10410000FC013383228390E080E00F90DF91CF9118
:10411000089580912402E82FF0E0E052FE4F99814B
:1041200090838F5F809324028093230281E090E04C
:10413000ECCF61E0CE0101960E94B11FF7CFDC0108
:104140001A96ED91FC9130E020E00994DC01149680
:10415000ED91FC9130E020E040E060E10994DC0169
:104160001696ED91FC9130E020E040E069E1099481
:10417000DC011696ED91FC9130E020E040E068E132
:1041800009949A01DC011696ED91FC91462F67E1A6
:104190000994EF92FF920F931F93CF93DF931F9297
:1041A000CDB7DEB77C018B01D8016C91673129F165
:1041B00050F46531A0F40F90DF91CF911F910F91D2
:1041C000FF90EF9008956A3118F16E3FA1F7F80162
:1041D0004181498369E2C7010E949F200BC0F80119
:1041E00041814983D7011696ED91FC9130E020E0A2
:1041F000C70109950E5F1F4FD7CFF80181818983D1
:10420000AE014F5F5F4F61E0C7010E94C120F2CF56
:104210000F5F1F4FD7011696ED91FC9130E020E023
:1042200040E0C7010995C0CF462FDC011696ED91FD
:10423000FC9130E020E066E10994462FDC011696FF
:10424000ED91FC9130E020E065E10994EF92FF925E
:104250000F931F93CF93DF93EC01042F7901693003
:1042600069F48EE491E0998388831C8A81E0DF9170
:10427000CF911F910F91FF90EF9008956D3009F449
:1042800075C038F46A3091F16B3009F468C080E091
:10429000EECF6E3009F47DC06F30C9F70E94B820B0
:1042A000F7011381110F110F110F6C89160F612F78
:1042B00062956F706061CE010E941D21612F6F7049
:1042C000CE010E941D21F7016481606BCE010E9426
:1042D0001D21F701408151816281660F660F660FD3
:1042E000CE010E94C1200150A1F75DC0EA85FB8587
:1042F00030E020E040E068E20995EE81FF8130E0A7
:1043000020E040E064E1CE01099541E06BE4CE019C
:104310000E949F20E881F981448169E2CE010E94D8
:104320009F2040E06BE4CE010E949F20E881F9814C
:10433000448169E2CE010E949F2041E06BE4CE01FE
:104340000E949F20E881F981458169E2CE010E94A7
:104350009F2069E171E0CE010E94C92087CF64E10E
:1043600071E04423C1F36FE071E0F5CF411109C062
:1043700068E071E00E94C920E881F98182898C8B14
:1043800075CF61E071E00E94C920E881F9818389DD
:10439000F6CF0E94B82061E8CE010E941D21602F57
:1043A000CE010E941421CE010E94AF205FCFDC011C
:1043B0001896ED91FC9130E020E040E069E109942D
:1043C000DC011896ED91FC9130E020E040E068E1DE
:1043D0000994CF93DF931F92CDB7DEB76983BE01F7
:1043E0006F5F7F4F0E94AF1C0F90DF91CF910895B8
:1043F000EF92FF921F93CF93DF93EC01162F7A0178
:104400000E94E02160E4CE010E94E921E885F9855F
:104410009701412F67E1CE010995CE01DF91CF9140
:104420001F91FF90EF900C94D721EF92FF921F9372
:10443000CF93DF93EC01142F7901663181F138F4C9
:10444000643109F44BC0653179F080E022C06831F5
:10445000C9F150F16931C9F78091DF01882391F1E9
:10446000CE010E94D7212EC08091DF01882319F050
:10447000CE010E94D721CE010E94E02160E0CE0152
:104480000E94E921612FCE010E94E92181E0809301
:10449000DF01DF91CF911F91FF90EF900895642F7E
:1044A0000E94E92181E0F5CF8091DF01882319F096
:1044B000CE010E94D721A701193138F4612FCE0116
:1044C0000E94F8211092DF01EDCF68E1CE010E9439
:1044D000F821185188E1E80EF11CEDCF8E898F3F4D
:1044E00011F488E78E8BE885F9859701412F64E107
:1044F000CE01DF91CF911F91FF90EF900994FC01C5
:104500006623D9F16A30C9F1808D811125C06C3FD5
:1045100048F085E0808F617070E0738B628B2EEFC6
:104520003FEF29C0683F20F084E0808F6370F4CFB4
:10453000603F20F083E0808F6770EECF603E20F018
:1045400082E0808F6F70E8CF262F30E0603C98F0DB
:1045500081E0808F6F71E0CF8150808F2289338915
:1045600096E0220F331F9A95E1F76F73262B338B5A
:10457000228B8111D4CFC90108952FEF3FEFFBCFDC
:104580000F93DC01DE963C91DE97431BD496ED91B0
:10459000FC9109950F910895CF93DF93FC01A081C1
:1045A000B18182AD982F990F990F990F95AF5096C1
:1045B0009C915097903208F09FE1990F990F990FB5
:1045C00094AF23AD922F990F990F990F96AF5196F3
:1045D0003C915197682F620F7727771F3617170680
:1045E00014F4832F821B97AFEF01C05CDF4F880F5D
:1045F000880F880F890F8883219680EF88835496CF
:104600008D919C915597813F910508F48883EE5BCD
:10461000FF4F56968C918083DF91CF9108950F9331
:10462000FC01EB5BFF4F308131965081451730F430
:10463000301738F0041728F080E013C03017D0F39B
:10464000FBCFFC01ED5BFF4F30818C5B9F4FFC018A
:104650008081681740F481E0321718F081E0261756
:1046600058F70F9108953217C8F3E6CF2F923F9273
:104670004F925F926F927F928F929F92AF92BF9272
:10468000CF92DF92EF92FF920F931F93CF93DF931E
:10469000EC014C0183E4880E911CF40110823297E6
:1046A00020805E01F4E4AF0EB11CF50120823FAC26
:1046B0006E01F5E4CF0ED11CF601308235974080B3
:1046C0007E01F6E4EF0EF11CF70140823496108172
:1046D000329760803196708032975080012F262D5E
:1046E000472D652DCE010E940F23CD58DF4F81113C
:1046F00014C01882DF91CF911F910F91FF90EF901E
:10470000DF90CF90BF90AF909F908F907F906F90F1
:104710005F904F903F902F90089581E088835520BF
:1047200011F0F4015082621410F4F5016082371424
:1047300010F4F60170821415E8F6F7011083DACF51
:104740000F93DC01802FFD01ED58FF4F90819923DD
:10475000E9F12223D9F1223020F0023079F56F5FA0
:10476000621B082F0170FD0180FD32C0EB5BFF4F23
:104770008081481758F131968081481738F5329773
:10478000908131978081260F2617F0F46917D8F4AD
:104790002FEF290F8217D0F4681708F4682F291714
:1047A00008F4922F961BD696ED91FC91D797048032
:1047B000F581E02D292FCD01099508C0033089F638
:1047C0004F5F421BCECF682F691720F30F910895DA
:1047D000ED5BFF4F80816817C8F3319680816817C1
:1047E000A8F73296908131978081240F241778F4AE
:1047F000491760F42FEF290F821740F7481708F484
:10480000482F291708F4922F941BCDCF482F491712
:10481000E8F6F2CF0F93909128056917A0F09091D8
:104820002905691780F490912605891760F0909109
:104830002705891740F4462F682F00E021E083EE1A
:1048400094E00E94A0230F910895FF920F931F936D
:10485000CF93DF93F82ED62F142FC22F00FF0CC05A
:10486000622F6D1B842F8F0D0E940A246C2F6F19ED
:104870008D2F810F0E940A2401FF0CC06C2F6D1B2D
:10488000812F8F190E940A246C2F6F19812F8D1B85
:104890000E940A2403FF0CC06C2F6D0F812F8F0D17
:1048A0000E940A246C2F6F0D8D2F810F0E940A2405
:1048B00002FF11C06C2F6D0F812F8F190E940A24E7
:1048C0006C2F6F0D812F8D1BDF91CF911F910F9159
:1048D000FF900C940A24DF91CF911F910F91FF90CC
:1048E00008950F931F93CF93DF93C82FD62F142FC4
:1048F00002E0060F22E0280F4FEF460F6FEF680F20
:1049000083EE94E00E940F23882369F0012F2D2F5E
:104910004C2F61E080E00E9425242D2F4C2F60E079
:1049200081E00E942524DF91CF911F910F9108957E
:10493000CF92DF92EF92FF920F931F93CF93DF936B
:10494000C82FF62ED42F122FD62ED20EE82EE40E1C
:104950000D2D2E2D462F682F83EE94E00E940F23FD
:10496000882309F44DC0EA94EA94DA94DA9442E098
:10497000CC24C394CF0C6C2D01E00C0F802F0E942F
:10498000712441E06C2D8E2D0E94712444E06D2D28
:10499000802F0E94712448E06D2D8E2D0E9471247D
:1049A000CC24CA94CD0E92E0D92EDF0C8EEF8D0F61
:1049B0008330A8F0D45000E02D2F4F2D82E0E82E58
:1049C000EC0E6E2D83EE94E00E94A0234FEF410F7A
:1049D0004F0D2D2F6E2D83EE94E00E94A0231450D6
:1049E00001E0212F4D2D6C2F83EE94E00E94A02337
:1049F0006C2F6C0D212F4D2D83EE94E00E94A0238F
:104A0000DF91CF911F910F91FF90EF90DF90CF90AA
:104A10000895213039F020F0223031F0840F0895CC
:104A2000860F0895841B0895861B0895213039F060
:104A300020F0223031F0861B0895840F0895860FF0
:104A40000895841B08955F926F927F928F929F9238
:104A5000AF92BF92CF92DF92EF92FF920F931F938C
:104A6000CF93DF935C01162F642EEC01C15BDF4F07
:104A7000DC80ED804C0189E7880E911CFE80FD18DA
:104A8000C12EF11608F4CF2C5B800C85202F4E2D03
:104A90006D2D8A810E940925782E202F4E2D6D2D97
:104AA000852D0E941625482F662071F08A85F40115
:104AB00080832C2D672DC5010E94A0231F1548F06F
:104AC0001F19E394D12CDACF89858111F7CF8B851B
:104AD000EECF1D0D1C83ED82DF91CF911F910F91C1
:104AE000FF90EF90DF90CF90BF90AF909F908F900E
:104AF0007F906F905F900895DC0118964C91189705
:104B0000ED91FC911197249130E0042E02C035956F
:104B100027950A94E2F7842F860F883068F0319643
:104B20001196FC93EE93E49198E0941B01C0EE0F74
:104B30009A95EAF72E2B885018968C938FEF9FEF5B
:104B400001C0880F6A95EAF78095822308950F9334
:104B50001F93CF93DF938C01EC01C15BDF4F79830F
:104B600068831886FC01E05AFF4F6081CE010E94E5
:104B70007C258E83F801EF59FF4F6081CE010E94A2
:104B80007C258F83F801E758FF4F90819A8781E059
:104B9000911180E08B87DF91CF911F910F91089544
:104BA000CF93C62F0E947C25C15021E030E001C088
:104BB000220FCA95EAF7821BCF910895FC01E60FF8
:104BC000F11D849190E0982F88273196E4918E0F03
:104BD000911D0895CF93DF9320912E0530912F05DD
:104BE0002817390709F490C0EC0190932F058093A2
:104BF0002E05FC01849180933F053196E491E0936A
:104C00004005FE013296E491E0934105FE013396A2
:104C1000E491E0934205FE013496E491E09343056C
:104C2000FE013596E491E0934405FE013696E49149
:104C3000E0934505FE013796E491E0934605FE01B9
:104C40003896E491E0934705FE013996E491E093AC
:104C50004805FE013A96E491E0934905FE013B9632
:104C6000E491E0934A05FE013C96E491E0934B0504
:104C7000FE013D96E491E0934C05FE013E96E491E1
:104C8000E0934D05FE013F96E491E0934E05FE0151
:104C90007096E491E0934F0561E1CE010E94DE251C
:104CA000909351058093500563E1CE010E94DE256B
:104CB000909353058093520565E1CE010E94DE2555
:104CC000909355058093540580912E0590912F0562
:104CD000892BD1F080914C058093580540914D056A
:104CE0004093590590915705992371F0913079F4CB
:104CF00090914E05891714F49093580580914F05B3
:104D0000841714F480935905DF91CF910895309161
:104D1000490520914B05082E000C990B622F022E9D
:104D2000000C770B630F711D37FD7A958617970777
:104D30001CF4320F30935805241734F7209359058B
:104D4000E3CFEF92FF920F931F93CF93DF93FC017A
:104D5000E55BFF4F20813181295E3F4F6F3F710539
:104D600009F048F561367105D8F081599F4FFC0173
:104D700080819181280F391FC9010196FC0144915E
:104D8000442309F447C0F90144914617170671F40A
:104D90000196DF91CF911F910F91FF90EF900895B1
:104DA0006134710548F383599F4FE1CFFC01849131
:104DB000280F311DE1CF8B01FC01EF58FF4FC0815F
:104DC000D181C20FD31F7E0160E0C7010E94DE25A2
:104DD000C80FD91F62E0C7010E94DE25F4E0EF0E84
:104DE000F11C8017910780F3FE01849190E0982FC9
:104DF00088273196E4918E2B009761F008171907E8
:104E000019F4CE010396C5CFFE013296E491CE0F80
:104E1000D11DEACF90E080E0BCCFEF92FF921F93CC
:104E2000CF93DF93109238051092FB047C01D0ECF5
:104E300010E0C0E0F70161917F01E091E504F0919D
:104E4000E60483EE94E009958F3F980769F18E3F61
:104E50002FEF920779F3BC0183EE94E00E94A12624
:104E6000009701F1BC0183EE94E00E94A7256091B8
:104E7000450582E395E00E94D02580935A05609114
:104E8000460582E395E00E94D0256091470582E3C4
:104E900095E00E94D025182FD03C11F4D0915A05EE
:104EA000C80FC8CF80E0F7CF80913805882341F044
:104EB00090915A05890FC80FC11B1D160CF4CD0F18
:104EC0008C2FDF91CF911F91FF90EF9008958F92DB
:104ED0009F92AF92BF92CF92DF92EF92FF920F9389
:104EE0001F93CF93DF93EC01062F142F7901FC0160
:104EF000E55AFF4F8081813009F46CC008F460C02E
:104F0000823009F471C0833009F478C0FE01EF5A91
:104F1000FF4F008331961083B701CE010E94A12676
:104F2000009709F4D5C07E012FE4E20EF11CBC010C
:104F3000CE010E94A725FE01EA5AFF4FC0803C9691
:104F40006081C7010E94D025982EFE01ED59FF4FC8
:104F50006081C7010E94D025B82EFE01EC59FF4F99
:104F60006081C7010E94D025A82EF7010681101686
:104F70000CF086C0D484BC0CB1942D2D4B2D692D22
:104F800082810E940925182FF70182832D2D4B2D38
:104F9000692D83810E941625482FF7018383F1E054
:104FA000DF1609F47BC0DF1698F122E0D21609F46F
:104FB0007BC083E0D81609F482C0042F212F2CC0B7
:104FC000FE01E35BFF4F0190F081E02DCE010995DA
:104FD000180F9CCFFE01E35BFF4F0190F081E02DA5
:104FE000CE010995081B92CFFE01E35BFF4F0190B4
:104FF000F081E02DCE010995181B88CFFE01E35BFF
:10500000FF4F0190F081E02DCE010995080F7ECF72
:10501000202F210F0C2D080F612FCE010E940F238E
:10502000882371F1F701148215828E01025A1F4FF5
:105030004E01FFE58F0E911CF8016081C7010E94AF
:105040007C25B82EF4016081C7010E947C25D82EF2
:1050500040E06B2DCE010E94232541E06D2DCE0155
:105060000E94232561E0C7010E947C258111F0CFB9
:10507000F70185818C1504F3C758DF4F828588833B
:105080008A2DDF91CF911F910F91FF90EF90DF90CC
:10509000CF90BF90AF909F908F900895DC1821E043
:1050A000210F080F1D0DB8CF81E0982F901B21E034
:1050B000210F8C1901E0040F480F190FADCF2C2DD3
:1050C000210F842F801B01E0040F41E0480FA4CF83
:1050D00080E0D7CF9A01462F682F83EE94E00C949E
:1050E0006727FF920F931F93CF93DF93C82FD62F7D
:1050F0001092FB048A01F12CF80161918F01E0917B
:10510000E504F091E60483EE94E009958F3F98075B
:10511000F1F08E3F2FEF920779F39C014D2F6C2F0A
:1051200083EE94E00E94672790913E05913049F00C
:1051300030F0923041F0933041F0F80EDDCFC80FDF
:10514000FCCFD80FFACFC81BF8CFD81BF6CF8F2DC6
:10515000DF91CF911F910F91FF90089528E13CE1DD
:105160003093E6042093E5040C947128AF92BF922B
:10517000CF92DF92EF92FF920F931F93CF93DF9323
:1051800000D000D01F92CDB7DEB78C01DC01DA96DB
:10519000AC90DA97DB96EC90DB97ED91FC91B188BF
:1051A000FE2CD12CC12CD801ED91FC911197808956
:1051B000D8962D913C911C82FD828B83B8E08B9F09
:1051C000C00111248C9DA0018D9D500D9C9D500D02
:1051D0001124240F351F3A832983D8011496ED91A9
:1051E000FC919E012F5F3F4F41E06FE0C8010995A0
:1051F000F3948F2D8E198A1528F4BFEFCB1ADB0A92
:10520000FB1488F20F900F900F900F900F90DF918A
:10521000CF911F910F91FF90EF90DF90CF90BF90B3
:10522000AF90089583EE94E00E94B62883EE94E058
:105230000C94A620CF92DF92EF92FF920F931F93D0
:10524000CF93DF93EC01962F683109F44BC0B9017D
:10525000993130F49431C9F0973189F080E006C07B
:10526000993109F461C09032C9F781E0DF91CF91A3
:105270001F910F91FF90EF90DF90CF90089550E035
:1052800083ED92E00E944320F0CF8C859D85AE8512
:10529000BF85892B8A2B8B2B71F4E881F981A58539
:1052A000B0E020EA36E841E050E00E94FB396C872C
:1052B0007D878E879F871092220210922102109282
:1052C0002402109223020E94D81F87E190E290935B
:1052D0004C0280934B0288E190E2909350028093BD
:1052E0004F02C3CF2C853D854E855F8560E074E21B
:1052F00084EF90E00E94D9392051310941095109C8
:1053000056954795379527952093B8008E8990E05C
:105310009595879591E0909300028093DE0110921D
:10532000240210922302A1CFD0912302D13208F09F
:1053300093C0C091DE010E94731D6B017C018091BE
:105340007302811164C082E08093730281E08093D4
:1053500075028FEF8093720210929702D09396029B
:10536000A0EEB1E0E6E7F2E080E0D8137CC0109256
:10537000980280919802CC0FC82BC093980280911C
:105380007402813009F073C0109274020E94731D80
:105390006B017C01809198028093BB008091260272
:1053A00090912702A0912802B0912902892B8A2B83
:1053B0008B2B99F00E94731D0091260210912702F9
:1053C00020912802309129026C197D098E099F09CC
:1053D0000617170728073907D8F18091BC0083FD0D
:1053E000D9CF85EC8093BC000E94731D6B017C01BA
:1053F000809173028230E9F1809172028F3F61F1F6
:1054000080917202803241F18091720225C08091B8
:10541000260290912702A0912802B0912902892B9F
:105420008A2B8B2B09F48BCF0E94731D00912602CF
:105430001091270220912802309129026C197D09D0
:105440008E099F09061717072807390708F077CF35
:10545000809125020E94F61F1092240210922302CE
:105460001092000202CF9D9191938F5F7ECF85EEC7
:10547000B9CF8091260290912702A0912802B09185
:105480002902892B8A2B8B2B09F4B2CF0E94731D22
:1054900000912602109127022091280230912902C2
:1054A0006C197D098E099F09061717072807390708
:1054B00008F09ECFCDCF0F931F93CF93DF938C0136
:1054C000C62F642FCC32E8F4CA3208F041C0C8328B
:1054D00071F1C93209F442C080E0C034D0F1CF7319
:1054E000F801EC0FF11D868D8F3F91F1C031E0F096
:1054F0000E94E01C21E0892B09F420E0F801218FB3
:1055000027C0CD3289F140F384EB8C0F823020F735
:10551000CF73C00FD12FD11D8E8D411133C061E0EB
:105520000E94371D60E08E8D0E94091D11C0025E31
:105530001F4FD0E0F80181918F018F3F31F061E082
:10554000D03108F062E00E94371DDF5FD63191F75D
:1055500081E0DF91CF911F910F91089570E090E06D
:1055600080E00E94981DF4CF85E090E0433010F079
:1055700082E090E0880F991F880F991F0597019787
:10558000F1F7E6CF62E00E94371DE2CF4F925F92C3
:105590006F927F928F929F92AF92BF92CF92DF9243
:1055A000EF92FF92CF93DF93CDB7DEB728970FB678
:1055B000F894DEBF0FBECDBFC090C902D090CA0222
:1055C000E090CB02F090CC024090C2025090C30217
:1055D0006090C4027090C502A3019201C701B60198
:1055E0000E94533987FD25C089E7809300016091AF
:1055F000C8028DE00E94091D6091C60284E00E94ED
:10560000091D60E086E028960FB6F894DEBF0FBE55
:10561000CDBFDF91CF91FF90EF90DF90CF90BF9003
:10562000AF909F908F907F906F905F904F900C9471
:10563000091D8091BE029091BF02A091C002B0915D
:10564000C10289839A83AB83BC839C01AD01C701EE
:10565000B6010E94F437181684F088E180930001A7
:105660006091C8028DE00E94091D6091C70286E02A
:105670000E94091D60E084E0C6CF29813A814B81F8
:105680005C81C301B2010E9487374B015C0120E0BD
:1056900030E040E450E40E94F9376D837E838F83CD
:1056A00098879B01AC01C301B2010E9487379B011F
:1056B000AC01C701B6010E94533918167CF489E485
:1056C000809300016091C60284E00E94091D60E0A1
:1056D00086E00E94091D60E08DE095CF2D813E811E
:1056E0004F81588569817A818B819C810E9488379E
:1056F0009B01AC01C701B6010E94F43787FF0EC0C1
:105700008CE4809300018091C702882321F061E03E
:1057100086E00E94091D60E084E0DBCF40909E029D
:1057200050909F026090A0027090A102EEE9F2E01A
:1057300084819581A681B78181939193A193B1933F
:1057400092E0EA3BF907A1F74092BA025092BB02FD
:105750006092BC027092BD022091A2023091A3021D
:105760004091A4025091A50260919E0270919F0207
:105770008091A0029091A1020E9488372091A602F8
:105780003091A7024091A8025091A9020E94883747
:105790002091AA023091AB024091AC025091AD022F
:1057A0000E94883769837A838B839C832091B2021D
:1057B0003091B3024091B4025091B5026091AE02B3
:1057C0007091AF028091B0029091B1020E9488372F
:1057D0002091B6023091B7024091B8025091B902BF
:1057E0000E948837A30192010E9488379B01AC0177
:1057F00069817A818B819C810E9487372B013C01D2
:1058000020E030E0A9010E9453391816ECF420E0A2
:1058100030E040E05FE3C501B4010E9458399B01CC
:10582000AC01C701B6010E94F43787FF0DC080911B
:10583000C702882339F161E086E00E94091D60E01B
:1058400084E00E94091D1EC020E030E0A901C301D0
:10585000B2010E94F43787FF2DC020E030E040E025
:105860005FE3C501B4010E9458399B01AC01C70137
:10587000B6010E9453391816ECF48091C60261E01B
:1058800081111DC083E78093000128960FB6F8941C
:10589000DEBF0FBECDBFDF91CF91FF90EF90DF90C5
:1058A000CF90BF90AF909F908F907F906F905F90C0
:1058B0004F90089560E08DE00E94091D60E084E053
:1058C0000E94091D60E086E0BCCFCF92DF92EF928C
:1058D000FF920F931F93CF93DF936C01EB017B013A
:1058E000E40EF51E10E000E0CE15DF0561F06991D1
:1058F000D601ED91FC910190F081E02DC601099552
:10590000080F191FF1CFC801DF91CF911F910F919F
:10591000FF90EF90DF90CF900895CF92DF92EF92BB
:10592000FF920F931F93CF93DF93EC016C0124E060
:10593000C20ED11CFC01E158FF4F0190F081E02D17
:10594000C60109958E3FEFEF9E07C8F48E010E57F2
:105950001F4F7E01F1E8EF0EF11C9C01F801408120
:10596000F7016081C6010E946727C15ADF4F988105
:105970009130A9F078F09230A1F09330B9F081E045
:1059800090E0DF91CF911F910F91FF90EF90DF900A
:10599000CF900895F7019081890F8083F0CFF801AF
:1059A000FACFF7019081981B892FF7CFF801FACF32
:1059B000089590E080E00895BF92CF92DF92EF9239
:1059C000FF920F931F93CF93DF93EC01B62EC72E58
:1059D0008D85811105C0CE010E94881E81110EC0E7
:1059E0001B861D861C8680E0DF91CF911F910F9151
:1059F000FF90EF90DF90CF90BF90089540E060EF70
:105A0000CE010E94351E01E0E12CD12C11E0CE0127
:105A10000E94E21DF82ECE010E94E21D91E0F912D3
:105A200018C0813099F51134D8F2DB86D11002C04C
:105A300081E08D878B81882399F22396EB2DFC2DB5
:105A4000CF01089629912193E817F907D9F781E04A
:105A5000CBCFEE2DF0E0F8120FC08B851817A0F415
:105A6000DE01AE0FBF1F13968C91802379F4F12CC9
:105A7000193008F41C87D12EEC0FFD1F8381902F65
:105A80009095892383830AC08113F1CFFE01EE0D27
:105A9000F11D8381802B8383FF24F3946F2DCE012E
:105AA0000E94061E1F5F000F11F4E39401E087E0DF
:105AB0008E1508F0ACCFB7CFCF93DF93CDB7DEB75D
:105AC00061970FB6F894DEBF0FBECDBFE0916B05B6
:105AD000F0916C0513861586148612861186108641
